{
  "_format": "hh-sol-artifact-1",
  "contractName": "BITToken",
  "sourceName": "contracts/BITToken.sol",
  "abi": [
    {
      "inputs": [
        {
          "internalType": "uint256",
          "name": "initialSupply",
          "type": "uint256"
        }
      ],
      "stateMutability": "nonpayable",
      "type": "constructor"
    },
    {
      "inputs": [
        {
          "internalType": "address",
          "name": "spender",
          "type": "address"
        },
        {
          "internalType": "uint256",
          "name": "allowance",
          "type": "uint256"
        },
        {
          "internalType": "uint256",
          "name": "needed",
          "type": "uint256"
        }
      ],
      "name": "ERC20InsufficientAllowance",
      "type": "error"
    },
    {
      "inputs": [
        {
          "internalType": "address",
          "name": "sender",
          "type": "address"
        },
        {
          "internalType": "uint256",
          "name": "balance",
          "type": "uint256"
        },
        {
          "internalType": "uint256",
          "name": "needed",
          "type": "uint256"
        }
      ],
      "name": "ERC20InsufficientBalance",
      "type": "error"
    },
    {
      "inputs": [
        {
          "internalType": "address",
          "name": "approver",
          "type": "address"
        }
      ],
      "name": "ERC20InvalidApprover",
      "type": "error"
    },
    {
      "inputs": [
        {
          "internalType": "address",
          "name": "receiver",
          "type": "address"
        }
      ],
      "name": "ERC20InvalidReceiver",
      "type": "error"
    },
    {
      "inputs": [
        {
          "internalType": "address",
          "name": "sender",
          "type": "address"
        }
      ],
      "name": "ERC20InvalidSender",
      "type": "error"
    },
    {
      "inputs": [
        {
          "internalType": "address",
          "name": "spender",
          "type": "address"
        }
      ],
      "name": "ERC20InvalidSpender",
      "type": "error"
    },
    {
      "anonymous": false,
      "inputs": [
        {
          "indexed": true,
          "internalType": "address",
          "name": "owner",
          "type": "address"
        },
        {
          "indexed": true,
          "internalType": "address",
          "name": "spender",
          "type": "address"
        },
        {
          "indexed": false,
          "internalType": "uint256",
          "name": "value",
          "type": "uint256"
        }
      ],
      "name": "Approval",
      "type": "event"
    },
    {
      "anonymous": false,
      "inputs": [
        {
          "indexed": true,
          "internalType": "address",
          "name": "from",
          "type": "address"
        },
        {
          "indexed": true,
          "internalType": "address",
          "name": "to",
          "type": "address"
        },
        {
          "indexed": false,
          "internalType": "uint256",
          "name": "value",
          "type": "uint256"
        }
      ],
      "name": "Transfer",
      "type": "event"
    },
    {
      "inputs": [
        {
          "internalType": "address",
          "name": "owner",
          "type": "address"
        },
        {
          "internalType": "address",
          "name": "spender",
          "type": "address"
        }
      ],
      "name": "allowance",
      "outputs": [
        {
          "internalType": "uint256",
          "name": "",
          "type": "uint256"
        }
      ],
      "stateMutability": "view",
      "type": "function"
    },
    {
      "inputs": [
        {
          "internalType": "address",
          "name": "spender",
          "type": "address"
        },
        {
          "internalType": "uint256",
          "name": "value",
          "type": "uint256"
        }
      ],
      "name": "approve",
      "outputs": [
        {
          "internalType": "bool",
          "name": "",
          "type": "bool"
        }
      ],
      "stateMutability": "nonpayable",
      "type": "function"
    },
    {
      "inputs": [
        {
          "internalType": "address",
          "name": "account",
          "type": "address"
        }
      ],
      "name": "balanceOf",
      "outputs": [
        {
          "internalType": "uint256",
          "name": "",
          "type": "uint256"
        }
      ],
      "stateMutability": "view",
      "type": "function"
    },
    {
      "inputs": [
        {
          "internalType": "address",
          "name": "target",
          "type": "address"
        },
        {
          "internalType": "uint256",
          "name": "tokens",
          "type": "uint256"
        }
      ],
      "name": "burnTokens",
      "outputs": [],
      "stateMutability": "nonpayable",
      "type": "function"
    },
    {
      "inputs": [],
      "name": "burner",
      "outputs": [
        {
          "internalType": "address",
          "name": "",
          "type": "address"
        }
      ],
      "stateMutability": "view",
      "type": "function"
    },
    {
      "inputs": [
        {
          "internalType": "uint256",
          "name": "tokens",
          "type": "uint256"
        }
      ],
      "name": "claimTokens",
      "outputs": [],
      "stateMutability": "nonpayable",
      "type": "function"
    },
    {
      "inputs": [],
      "name": "decimals",
      "outputs": [
        {
          "internalType": "uint8",
          "name": "",
          "type": "uint8"
        }
      ],
      "stateMutability": "view",
      "type": "function"
    },
    {
      "inputs": [],
      "name": "getUsers",
      "outputs": [
        {
          "components": [
            {
              "internalType": "address",
              "name": "addr",
              "type": "address"
            },
            {
              "internalType": "uint256",
              "name": "balance",
              "type": "uint256"
            }
          ],
          "internalType": "struct Leaderboard.User[]",
          "name": "",
          "type": "tuple[]"
        }
      ],
      "stateMutability": "view",
      "type": "function"
    },
    {
      "inputs": [
        {
          "internalType": "uint256",
          "name": "",
          "type": "uint256"
        }
      ],
      "name": "holders",
      "outputs": [
        {
          "internalType": "address",
          "name": "",
          "type": "address"
        }
      ],
      "stateMutability": "view",
      "type": "function"
    },
    {
      "inputs": [],
      "name": "name",
      "outputs": [
        {
          "internalType": "string",
          "name": "",
          "type": "string"
        }
      ],
      "stateMutability": "view",
      "type": "function"
    },
    {
      "inputs": [],
      "name": "owner",
      "outputs": [
        {
          "internalType": "address",
          "name": "",
          "type": "address"
        }
      ],
      "stateMutability": "view",
      "type": "function"
    },
    {
      "inputs": [
        {
          "internalType": "address[]",
          "name": "users",
          "type": "address[]"
        },
        {
          "internalType": "uint256[]",
          "name": "tokens",
          "type": "uint256[]"
        }
      ],
      "name": "rewardTokens",
      "outputs": [],
      "stateMutability": "nonpayable",
      "type": "function"
    },
    {
      "inputs": [
        {
          "internalType": "address",
          "name": "_burner",
          "type": "address"
        }
      ],
      "name": "setBurner",
      "outputs": [],
      "stateMutability": "nonpayable",
      "type": "function"
    },
    {
      "inputs": [],
      "name": "symbol",
      "outputs": [
        {
          "internalType": "string",
          "name": "",
          "type": "string"
        }
      ],
      "stateMutability": "view",
      "type": "function"
    },
    {
      "inputs": [],
      "name": "totalSupply",
      "outputs": [
        {
          "internalType": "uint256",
          "name": "",
          "type": "uint256"
        }
      ],
      "stateMutability": "view",
      "type": "function"
    },
    {
      "inputs": [
        {
          "internalType": "address",
          "name": "to",
          "type": "address"
        },
        {
          "internalType": "uint256",
          "name": "value",
          "type": "uint256"
        }
      ],
      "name": "transfer",
      "outputs": [
        {
          "internalType": "bool",
          "name": "",
          "type": "bool"
        }
      ],
      "stateMutability": "nonpayable",
      "type": "function"
    },
    {
      "inputs": [
        {
          "internalType": "address",
          "name": "from",
          "type": "address"
        },
        {
          "internalType": "address",
          "name": "to",
          "type": "address"
        },
        {
          "internalType": "uint256",
          "name": "value",
          "type": "uint256"
        }
      ],
      "name": "transferFrom",
      "outputs": [
        {
          "internalType": "bool",
          "name": "",
          "type": "bool"
        }
      ],
      "stateMutability": "nonpayable",
      "type": "function"
    }
  ],
  "bytecode": "608060405234801561000f575f80fd5b50604051612429380380612429833981810160405281019061003191906103ea565b6040518060400160405280601181526020017f427261696e20496e64657820546f6b656e0000000000000000000000000000008152506040518060400160405280600381526020017f424954000000000000000000000000000000000000000000000000000000000081525081600390816100ac9190610646565b5080600490816100bc9190610646565b5050503360055f6101000a81548173ffffffffffffffffffffffffffffffffffffffff021916908373ffffffffffffffffffffffffffffffffffffffff16021790555061010f338261011560201b60201c565b5061082a565b5f73ffffffffffffffffffffffffffffffffffffffff168273ffffffffffffffffffffffffffffffffffffffff1603610185575f6040517fec442f0500000000000000000000000000000000000000000000000000000000815260040161017c9190610754565b60405180910390fd5b6101965f838361019a60201b60201c565b5050565b5f73ffffffffffffffffffffffffffffffffffffffff168373ffffffffffffffffffffffffffffffffffffffff16036101ea578060025f8282546101de919061079a565b925050819055506102b8565b5f805f8573ffffffffffffffffffffffffffffffffffffffff1673ffffffffffffffffffffffffffffffffffffffff1681526020019081526020015f2054905081811015610273578381836040517fe450d38c00000000000000000000000000000000000000000000000000000000815260040161026a939291906107dc565b60405180910390fd5b8181035f808673ffffffffffffffffffffffffffffffffffffffff1673ffffffffffffffffffffffffffffffffffffffff1681526020019081526020015f2081905550505b5f73ffffffffffffffffffffffffffffffffffffffff168273ffffffffffffffffffffffffffffffffffffffff16036102ff578060025f8282540392505081905550610349565b805f808473ffffffffffffffffffffffffffffffffffffffff1673ffffffffffffffffffffffffffffffffffffffff1681526020019081526020015f205f82825401925050819055505b8173ffffffffffffffffffffffffffffffffffffffff168373ffffffffffffffffffffffffffffffffffffffff167fddf252ad1be2c89b69c2b068fc378daa952ba7f163c4a11628f55a4df523b3ef836040516103a69190610811565b60405180910390a3505050565b5f80fd5b5f819050919050565b6103c9816103b7565b81146103d3575f80fd5b50565b5f815190506103e4816103c0565b92915050565b5f602082840312156103ff576103fe6103b3565b5b5f61040c848285016103d6565b91505092915050565b5f81519050919050565b7f4e487b71000000000000000000000000000000000000000000000000000000005f52604160045260245ffd5b7f4e487b71000000000000000000000000000000000000000000000000000000005f52602260045260245ffd5b5f600282049050600182168061049057607f821691505b6020821081036104a3576104a261044c565b5b50919050565b5f819050815f5260205f209050919050565b5f6020601f8301049050919050565b5f82821b905092915050565b5f600883026105057fffffffffffffffffffffffffffffffffffffffffffffffffffffffffffffffff826104ca565b61050f86836104ca565b95508019841693508086168417925050509392505050565b5f819050919050565b5f61054a610545610540846103b7565b610527565b6103b7565b9050919050565b5f819050919050565b61056383610530565b61057761056f82610551565b8484546104d6565b825550505050565b5f90565b61058b61057f565b61059681848461055a565b505050565b5b818110156105b9576105ae5f82610583565b60018101905061059c565b5050565b601f8211156105fe576105cf816104a9565b6105d8846104bb565b810160208510156105e7578190505b6105fb6105f3856104bb565b83018261059b565b50505b505050565b5f82821c905092915050565b5f61061e5f1984600802610603565b1980831691505092915050565b5f610636838361060f565b9150826002028217905092915050565b61064f82610415565b67ffffffffffffffff8111156106685761066761041f565b5b6106728254610479565b61067d8282856105bd565b5f60209050601f8311600181146106ae575f841561069c578287015190505b6106a6858261062b565b86555061070d565b601f1984166106bc866104a9565b5f5b828110156106e3578489015182556001820191506020850194506020810190506106be565b8683101561070057848901516106fc601f89168261060f565b8355505b6001600288020188555050505b505050505050565b5f73ffffffffffffffffffffffffffffffffffffffff82169050919050565b5f61073e82610715565b9050919050565b61074e81610734565b82525050565b5f6020820190506107675f830184610745565b92915050565b7f4e487b71000000000000000000000000000000000000000000000000000000005f52601160045260245ffd5b5f6107a4826103b7565b91506107af836103b7565b92508282019050808211156107c7576107c661076d565b5b92915050565b6107d6816103b7565b82525050565b5f6060820190506107ef5f830186610745565b6107fc60208301856107cd565b61080960408301846107cd565b949350505050565b5f6020820190506108245f8301846107cd565b92915050565b611bf2806108375f395ff3fe608060405234801561000f575f80fd5b5060043610610108575f3560e01c80632ec951c0116100a05780638da5cb5b1161006f5780638da5cb5b146102b657806395d89b41146102d4578063a9059cbb146102f2578063a996d6ce14610322578063dd62ed3e1461033e57610108565b80632ec951c014610230578063313ce5671461024c57806346e04a2f1461026a57806370a082311461028657610108565b806318160ddd116100dc57806318160ddd1461019457806323b872dd146101b257806327810b6e146101e25780632a11ced01461020057610108565b8062ce8e3e1461010c57806306fdde031461012a578063095ea7b3146101485780630d1118ce14610178575b5f80fd5b61011461036e565b6040516101219190611469565b60405180910390f35b6101326104e3565b60405161013f91906114f9565b60405180910390f35b610162600480360381019061015d919061157e565b610573565b60405161016f91906115d6565b60405180910390f35b610192600480360381019061018d919061157e565b610595565b005b61019c610632565b6040516101a991906115fe565b60405180910390f35b6101cc60048036038101906101c79190611617565b61063b565b6040516101d991906115d6565b60405180910390f35b6101ea610669565b6040516101f79190611676565b60405180910390f35b61021a6004803603810190610215919061168f565b61068e565b6040516102279190611676565b60405180910390f35b61024a600480360381019061024591906118ba565b6106c9565b005b610254610905565b604051610261919061194b565b60405180910390f35b610284600480360381019061027f919061168f565b61090d565b005b6102a0600480360381019061029b9190611964565b610a1e565b6040516102ad91906115fe565b60405180910390f35b6102be610a63565b6040516102cb9190611676565b60405180910390f35b6102dc610a88565b6040516102e991906114f9565b60405180910390f35b61030c6004803603810190610307919061157e565b610b18565b60405161031991906115d6565b60405180910390f35b61033c60048036038101906103379190611964565b610b3a565b005b6103586004803603810190610353919061198f565b610c0c565b60405161036591906115fe565b60405180910390f35b60605f60088054905067ffffffffffffffff8111156103905761038f6116be565b5b6040519080825280602002602001820160405280156103c957816020015b6103b661130f565b8152602001906001900390816103ae5790505b5090505f5b6008805490508110156104db57600881815481106103ef576103ee6119cd565b5b905f5260205f20015f9054906101000a900473ffffffffffffffffffffffffffffffffffffffff1682828151811061042a576104296119cd565b5b60200260200101515f019073ffffffffffffffffffffffffffffffffffffffff16908173ffffffffffffffffffffffffffffffffffffffff16815250506104ab6008828154811061047e5761047d6119cd565b5b905f5260205f20015f9054906101000a900473ffffffffffffffffffffffffffffffffffffffff16610a1e565b8282815181106104be576104bd6119cd565b5b6020026020010151602001818152505080806001019150506103ce565b508091505090565b6060600380546104f290611a27565b80601f016020809104026020016040519081016040528092919081815260200182805461051e90611a27565b80156105695780601f1061054057610100808354040283529160200191610569565b820191905f5260205f20905b81548152906001019060200180831161054c57829003601f168201915b5050505050905090565b5f8061057d610c8e565b905061058a818585610c95565b600191505092915050565b60065f9054906101000a900473ffffffffffffffffffffffffffffffffffffffff1673ffffffffffffffffffffffffffffffffffffffff163373ffffffffffffffffffffffffffffffffffffffff1614610624576040517f08c379a000000000000000000000000000000000000000000000000000000000815260040161061b90611aa1565b60405180910390fd5b61062e8282610ca7565b5050565b5f600254905090565b5f80610645610c8e565b9050610652858285610d26565b61065d858585610db8565b60019150509392505050565b60065f9054906101000a900473ffffffffffffffffffffffffffffffffffffffff1681565b6008818154811061069d575f80fd5b905f5260205f20015f915054906101000a900473ffffffffffffffffffffffffffffffffffffffff1681565b60055f9054906101000a900473ffffffffffffffffffffffffffffffffffffffff1673ffffffffffffffffffffffffffffffffffffffff163373ffffffffffffffffffffffffffffffffffffffff1614610758576040517f08c379a000000000000000000000000000000000000000000000000000000000815260040161074f90611b09565b60405180910390fd5b5f5b8251811015610900576107a1838281518110610779576107786119cd565b5b6020026020010151838381518110610794576107936119cd565b5b6020026020010151610ea8565b60075f8483815181106107b7576107b66119cd565b5b602002602001015173ffffffffffffffffffffffffffffffffffffffff1673ffffffffffffffffffffffffffffffffffffffff1681526020019081526020015f205f9054906101000a900460ff1661088457600883828151811061081e5761081d6119cd565b5b6020026020010151908060018154018082558091505060019003905f5260205f20015f9091909190916101000a81548173ffffffffffffffffffffffffffffffffffffffff021916908373ffffffffffffffffffffffffffffffffffffffff1602179055505b600160075f85848151811061089c5761089b6119cd565b5b602002602001015173ffffffffffffffffffffffffffffffffffffffff1673ffffffffffffffffffffffffffffffffffffffff1681526020019081526020015f205f6101000a81548160ff021916908315150217905550808060010191505061075a565b505050565b5f6012905090565b6109173382610ea8565b60075f3373ffffffffffffffffffffffffffffffffffffffff1673ffffffffffffffffffffffffffffffffffffffff1681526020019081526020015f205f9054906101000a900460ff166109c657600833908060018154018082558091505060019003905f5260205f20015f9091909190916101000a81548173ffffffffffffffffffffffffffffffffffffffff021916908373ffffffffffffffffffffffffffffffffffffffff1602179055505b600160075f3373ffffffffffffffffffffffffffffffffffffffff1673ffffffffffffffffffffffffffffffffffffffff1681526020019081526020015f205f6101000a81548160ff02191690831515021790555050565b5f805f8373ffffffffffffffffffffffffffffffffffffffff1673ffffffffffffffffffffffffffffffffffffffff1681526020019081526020015f20549050919050565b60055f9054906101000a900473ffffffffffffffffffffffffffffffffffffffff1681565b606060048054610a9790611a27565b80601f0160208091040260200160405190810160405280929190818152602001828054610ac390611a27565b8015610b0e5780601f10610ae557610100808354040283529160200191610b0e565b820191905f5260205f20905b815481529060010190602001808311610af157829003601f168201915b5050505050905090565b5f80610b22610c8e565b9050610b2f818585610db8565b600191505092915050565b60055f9054906101000a900473ffffffffffffffffffffffffffffffffffffffff1673ffffffffffffffffffffffffffffffffffffffff163373ffffffffffffffffffffffffffffffffffffffff1614610bc9576040517f08c379a0000000000000000000000000000000000000000000000000000000008152600401610bc090611b09565b60405180910390fd5b8060065f6101000a81548173ffffffffffffffffffffffffffffffffffffffff021916908373ffffffffffffffffffffffffffffffffffffffff16021790555050565b5f60015f8473ffffffffffffffffffffffffffffffffffffffff1673ffffffffffffffffffffffffffffffffffffffff1681526020019081526020015f205f8373ffffffffffffffffffffffffffffffffffffffff1673ffffffffffffffffffffffffffffffffffffffff1681526020019081526020015f2054905092915050565b5f33905090565b610ca28383836001610f27565b505050565b5f73ffffffffffffffffffffffffffffffffffffffff168273ffffffffffffffffffffffffffffffffffffffff1603610d17575f6040517f96c6fd1e000000000000000000000000000000000000000000000000000000008152600401610d0e9190611676565b60405180910390fd5b610d22825f836110f6565b5050565b5f610d318484610c0c565b90507fffffffffffffffffffffffffffffffffffffffffffffffffffffffffffffffff8114610db25781811015610da3578281836040517ffb8f41b2000000000000000000000000000000000000000000000000000000008152600401610d9a93929190611b27565b60405180910390fd5b610db184848484035f610f27565b5b50505050565b5f73ffffffffffffffffffffffffffffffffffffffff168373ffffffffffffffffffffffffffffffffffffffff1603610e28575f6040517f96c6fd1e000000000000000000000000000000000000000000000000000000008152600401610e1f9190611676565b60405180910390fd5b5f73ffffffffffffffffffffffffffffffffffffffff168273ffffffffffffffffffffffffffffffffffffffff1603610e98575f6040517fec442f05000000000000000000000000000000000000000000000000000000008152600401610e8f9190611676565b60405180910390fd5b610ea38383836110f6565b505050565b5f73ffffffffffffffffffffffffffffffffffffffff168273ffffffffffffffffffffffffffffffffffffffff1603610f18575f6040517fec442f05000000000000000000000000000000000000000000000000000000008152600401610f0f9190611676565b60405180910390fd5b610f235f83836110f6565b5050565b5f73ffffffffffffffffffffffffffffffffffffffff168473ffffffffffffffffffffffffffffffffffffffff1603610f97575f6040517fe602df05000000000000000000000000000000000000000000000000000000008152600401610f8e9190611676565b60405180910390fd5b5f73ffffffffffffffffffffffffffffffffffffffff168373ffffffffffffffffffffffffffffffffffffffff1603611007575f6040517f94280d62000000000000000000000000000000000000000000000000000000008152600401610ffe9190611676565b60405180910390fd5b8160015f8673ffffffffffffffffffffffffffffffffffffffff1673ffffffffffffffffffffffffffffffffffffffff1681526020019081526020015f205f8573ffffffffffffffffffffffffffffffffffffffff1673ffffffffffffffffffffffffffffffffffffffff1681526020019081526020015f208190555080156110f0578273ffffffffffffffffffffffffffffffffffffffff168473ffffffffffffffffffffffffffffffffffffffff167f8c5be1e5ebec7d5bd14f71427d1e84f3dd0314c0f7b2291e5b200ac8c7c3b925846040516110e791906115fe565b60405180910390a35b50505050565b5f73ffffffffffffffffffffffffffffffffffffffff168373ffffffffffffffffffffffffffffffffffffffff1603611146578060025f82825461113a9190611b89565b92505081905550611214565b5f805f8573ffffffffffffffffffffffffffffffffffffffff1673ffffffffffffffffffffffffffffffffffffffff1681526020019081526020015f20549050818110156111cf578381836040517fe450d38c0000000000000000000000000000000000000000000000000000000081526004016111c693929190611b27565b60405180910390fd5b8181035f808673ffffffffffffffffffffffffffffffffffffffff1673ffffffffffffffffffffffffffffffffffffffff1681526020019081526020015f2081905550505b5f73ffffffffffffffffffffffffffffffffffffffff168273ffffffffffffffffffffffffffffffffffffffff160361125b578060025f82825403925050819055506112a5565b805f808473ffffffffffffffffffffffffffffffffffffffff1673ffffffffffffffffffffffffffffffffffffffff1681526020019081526020015f205f82825401925050819055505b8173ffffffffffffffffffffffffffffffffffffffff168373ffffffffffffffffffffffffffffffffffffffff167fddf252ad1be2c89b69c2b068fc378daa952ba7f163c4a11628f55a4df523b3ef8360405161130291906115fe565b60405180910390a3505050565b60405180604001604052805f73ffffffffffffffffffffffffffffffffffffffff1681526020015f81525090565b5f81519050919050565b5f82825260208201905092915050565b5f819050602082019050919050565b5f73ffffffffffffffffffffffffffffffffffffffff82169050919050565b5f61138f82611366565b9050919050565b61139f81611385565b82525050565b5f819050919050565b6113b7816113a5565b82525050565b604082015f8201516113d15f850182611396565b5060208201516113e460208501826113ae565b50505050565b5f6113f583836113bd565b60408301905092915050565b5f602082019050919050565b5f6114178261133d565b6114218185611347565b935061142c83611357565b805f5b8381101561145c57815161144388826113ea565b975061144e83611401565b92505060018101905061142f565b5085935050505092915050565b5f6020820190508181035f830152611481818461140d565b905092915050565b5f81519050919050565b5f82825260208201905092915050565b8281835e5f83830152505050565b5f601f19601f8301169050919050565b5f6114cb82611489565b6114d58185611493565b93506114e58185602086016114a3565b6114ee816114b1565b840191505092915050565b5f6020820190508181035f83015261151181846114c1565b905092915050565b5f604051905090565b5f80fd5b5f80fd5b61153381611385565b811461153d575f80fd5b50565b5f8135905061154e8161152a565b92915050565b61155d816113a5565b8114611567575f80fd5b50565b5f8135905061157881611554565b92915050565b5f806040838503121561159457611593611522565b5b5f6115a185828601611540565b92505060206115b28582860161156a565b9150509250929050565b5f8115159050919050565b6115d0816115bc565b82525050565b5f6020820190506115e95f8301846115c7565b92915050565b6115f8816113a5565b82525050565b5f6020820190506116115f8301846115ef565b92915050565b5f805f6060848603121561162e5761162d611522565b5b5f61163b86828701611540565b935050602061164c86828701611540565b925050604061165d8682870161156a565b9150509250925092565b61167081611385565b82525050565b5f6020820190506116895f830184611667565b92915050565b5f602082840312156116a4576116a3611522565b5b5f6116b18482850161156a565b91505092915050565b5f80fd5b7f4e487b71000000000000000000000000000000000000000000000000000000005f52604160045260245ffd5b6116f4826114b1565b810181811067ffffffffffffffff82111715611713576117126116be565b5b80604052505050565b5f611725611519565b905061173182826116eb565b919050565b5f67ffffffffffffffff8211156117505761174f6116be565b5b602082029050602081019050919050565b5f80fd5b5f61177761177284611736565b61171c565b9050808382526020820190506020840283018581111561179a57611799611761565b5b835b818110156117c357806117af8882611540565b84526020840193505060208101905061179c565b5050509392505050565b5f82601f8301126117e1576117e06116ba565b5b81356117f1848260208601611765565b91505092915050565b5f67ffffffffffffffff821115611814576118136116be565b5b602082029050602081019050919050565b5f611837611832846117fa565b61171c565b9050808382526020820190506020840283018581111561185a57611859611761565b5b835b81811015611883578061186f888261156a565b84526020840193505060208101905061185c565b5050509392505050565b5f82601f8301126118a1576118a06116ba565b5b81356118b1848260208601611825565b91505092915050565b5f80604083850312156118d0576118cf611522565b5b5f83013567ffffffffffffffff8111156118ed576118ec611526565b5b6118f9858286016117cd565b925050602083013567ffffffffffffffff81111561191a57611919611526565b5b6119268582860161188d565b9150509250929050565b5f60ff82169050919050565b61194581611930565b82525050565b5f60208201905061195e5f83018461193c565b92915050565b5f6020828403121561197957611978611522565b5b5f61198684828501611540565b91505092915050565b5f80604083850312156119a5576119a4611522565b5b5f6119b285828601611540565b92505060206119c385828601611540565b9150509250929050565b7f4e487b71000000000000000000000000000000000000000000000000000000005f52603260045260245ffd5b7f4e487b71000000000000000000000000000000000000000000000000000000005f52602260045260245ffd5b5f6002820490506001821680611a3e57607f821691505b602082108103611a5157611a506119fa565b5b50919050565b7f4255524e45525f4f4e4c590000000000000000000000000000000000000000005f82015250565b5f611a8b600b83611493565b9150611a9682611a57565b602082019050919050565b5f6020820190508181035f830152611ab881611a7f565b9050919050565b7f4f574e45525f4f4e4c59000000000000000000000000000000000000000000005f82015250565b5f611af3600a83611493565b9150611afe82611abf565b602082019050919050565b5f6020820190508181035f830152611b2081611ae7565b9050919050565b5f606082019050611b3a5f830186611667565b611b4760208301856115ef565b611b5460408301846115ef565b949350505050565b7f4e487b71000000000000000000000000000000000000000000000000000000005f52601160045260245ffd5b5f611b93826113a5565b9150611b9e836113a5565b9250828201905080821115611bb657611bb5611b5c565b5b9291505056fea26469706673582212207d795e1c600921fe19287e073b3321ce520556d888dbfd747cbdc21082f18e5164736f6c634300081a0033",
  "deployedBytecode": "0x608060405234801561001057600080fd5b50600436106101205760003560e01c8063313ce567116100ad57806395d89b411161007157806395d89b411461031d578063a457c2d71461033b578063a9059cbb1461036b578063a996d6ce1461039b578063dd62ed3e146103b757610120565b8063313ce56714610265578063395093511461028357806346e04a2f146102b357806370a08231146102cf5780638da5cb5b146102ff57610120565b806318160ddd116100f457806318160ddd146101ad57806323b872dd146101cb57806327810b6e146101fb5780632a11ced0146102195780632ec951c01461024957610120565b8062ce8e3e1461012557806306fdde0314610143578063095ea7b3146101615780630d1118ce14610191575b600080fd5b61012d6103e7565b60405161013a9190611754565b60405180910390f35b61014b610565565b6040516101589190611806565b60405180910390f35b61017b60048036038101906101769190611894565b6105f7565b60405161018891906118ef565b60405180910390f35b6101ab60048036038101906101a69190611894565b61061a565b005b6101b56106b8565b6040516101c29190611919565b60405180910390f35b6101e560048036038101906101e09190611934565b6106c2565b6040516101f291906118ef565b60405180910390f35b6102036106f1565b6040516102109190611996565b60405180910390f35b610233600480360381019061022e91906119b1565b610717565b6040516102409190611996565b60405180910390f35b610263600480360381019061025e9190611be9565b610756565b005b61026d61099d565b60405161027a9190611c7d565b60405180910390f35b61029d60048036038101906102989190611894565b6109a6565b6040516102aa91906118ef565b60405180910390f35b6102cd60048036038101906102c891906119b1565b6109dd565b005b6102e960048036038101906102e49190611c98565b610af7565b6040516102f69190611919565b60405180910390f35b610307610b3f565b6040516103149190611996565b60405180910390f35b610325610b65565b6040516103329190611806565b60405180910390f35b61035560048036038101906103509190611894565b610bf7565b60405161036291906118ef565b60405180910390f35b61038560048036038101906103809190611894565b610c6e565b60405161039291906118ef565b60405180910390f35b6103b560048036038101906103b09190611c98565b610c91565b005b6103d160048036038101906103cc9190611cc5565b610d65565b6040516103de9190611919565b60405180910390f35b6060600060088054905067ffffffffffffffff81111561040a576104096119e3565b5b60405190808252806020026020018201604052801561044357816020015b6104306115ec565b8152602001906001900390816104285790505b50905060005b60088054905081101561055d576008818154811061046a57610469611d05565b5b9060005260206000200160009054906101000a900473ffffffffffffffffffffffffffffffffffffffff168282815181106104a8576104a7611d05565b5b60200260200101516000019073ffffffffffffffffffffffffffffffffffffffff16908173ffffffffffffffffffffffffffffffffffffffff168152505061052d600882815481106104fd576104fc611d05565b5b9060005260206000200160009054906101000a900473ffffffffffffffffffffffffffffffffffffffff16610af7565b8282815181106105405761053f611d05565b5b602002602001015160200181815250508080600101915050610449565b508091505090565b60606003805461057490611d63565b80601f01602080910402602001604051908101604052809291908181526020018280546105a090611d63565b80156105ed5780601f106105c2576101008083540402835291602001916105ed565b820191906000526020600020905b8154815290600101906020018083116105d057829003601f168201915b5050505050905090565b600080610602610dec565b905061060f818585610df4565b600191505092915050565b600660009054906101000a900473ffffffffffffffffffffffffffffffffffffffff1673ffffffffffffffffffffffffffffffffffffffff163373ffffffffffffffffffffffffffffffffffffffff16146106aa576040517f08c379a00000000000000000000000000000000000000000000000000000000081526004016106a190611de0565b60405180910390fd5b6106b48282610fbd565b5050565b6000600254905090565b6000806106cd610dec565b90506106da85828561118a565b6106e5858585611216565b60019150509392505050565b600660009054906101000a900473ffffffffffffffffffffffffffffffffffffffff1681565b6008818154811061072757600080fd5b906000526020600020016000915054906101000a900473ffffffffffffffffffffffffffffffffffffffff1681565b600560009054906101000a900473ffffffffffffffffffffffffffffffffffffffff1673ffffffffffffffffffffffffffffffffffffffff163373ffffffffffffffffffffffffffffffffffffffff16146107e6576040517f08c379a00000000000000000000000000000000000000000000000000000000081526004016107dd90611e4c565b60405180910390fd5b60005b82518110156109985761083083828151811061080857610807611d05565b5b602002602001015183838151811061082357610822611d05565b5b602002602001015161148c565b6007600084838151811061084757610846611d05565b5b602002602001015173ffffffffffffffffffffffffffffffffffffffff1673ffffffffffffffffffffffffffffffffffffffff16815260200190815260200160002060009054906101000a900460ff166109195760088382815181106108b0576108af611d05565b5b60200260200101519080600181540180825580915050600190039060005260206000200160009091909190916101000a81548173ffffffffffffffffffffffffffffffffffffffff021916908373ffffffffffffffffffffffffffffffffffffffff1602179055505b60016007600085848151811061093257610931611d05565b5b602002602001015173ffffffffffffffffffffffffffffffffffffffff1673ffffffffffffffffffffffffffffffffffffffff16815260200190815260200160002060006101000a81548160ff02191690831515021790555080806001019150506107e9565b505050565b60006012905090565b6000806109b1610dec565b90506109d28185856109c38589610d65565b6109cd9190611e9b565b610df4565b600191505092915050565b6109e7338261148c565b600760003373ffffffffffffffffffffffffffffffffffffffff1673ffffffffffffffffffffffffffffffffffffffff16815260200190815260200160002060009054906101000a900460ff16610a9c576008339080600181540180825580915050600190039060005260206000200160009091909190916101000a81548173ffffffffffffffffffffffffffffffffffffffff021916908373ffffffffffffffffffffffffffffffffffffffff1602179055505b6001600760003373ffffffffffffffffffffffffffffffffffffffff1673ffffffffffffffffffffffffffffffffffffffff16815260200190815260200160002060006101000a81548160ff02191690831515021790555050565b60008060008373ffffffffffffffffffffffffffffffffffffffff1673ffffffffffffffffffffffffffffffffffffffff168152602001908152602001600020549050919050565b600560009054906101000a900473ffffffffffffffffffffffffffffffffffffffff1681565b606060048054610b7490611d63565b80601f0160208091040260200160405190810160405280929190818152602001828054610ba090611d63565b8015610bed5780601f10610bc257610100808354040283529160200191610bed565b820191906000526020600020905b815481529060010190602001808311610bd057829003601f168201915b5050505050905090565b600080610c02610dec565b90506000610c108286610d65565b905083811015610c55576040517f08c379a0000000000000000000000000000000000000000000000000000000008152600401610c4c90611f41565b60405180910390fd5b610c628286868403610df4565b60019250505092915050565b600080610c79610dec565b9050610c86818585611216565b600191505092915050565b600560009054906101000a900473ffffffffffffffffffffffffffffffffffffffff1673ffffffffffffffffffffffffffffffffffffffff163373ffffffffffffffffffffffffffffffffffffffff1614610d21576040517f08c379a0000000000000000000000000000000000000000000000000000000008152600401610d1890611e4c565b60405180910390fd5b80600660006101000a81548173ffffffffffffffffffffffffffffffffffffffff021916908373ffffffffffffffffffffffffffffffffffffffff16021790555050565b6000600160008473ffffffffffffffffffffffffffffffffffffffff1673ffffffffffffffffffffffffffffffffffffffff16815260200190815260200160002060008373ffffffffffffffffffffffffffffffffffffffff1673ffffffffffffffffffffffffffffffffffffffff16815260200190815260200160002054905092915050565b600033905090565b600073ffffffffffffffffffffffffffffffffffffffff168373ffffffffffffffffffffffffffffffffffffffff1603610e63576040517f08c379a0000000000000000000000000000000000000000000000000000000008152600401610e5a90611fd3565b60405180910390fd5b600073ffffffffffffffffffffffffffffffffffffffff168273ffffffffffffffffffffffffffffffffffffffff1603610ed2576040517f08c379a0000000000000000000000000000000000000000000000000000000008152600401610ec990612065565b60405180910390fd5b80600160008573ffffffffffffffffffffffffffffffffffffffff1673ffffffffffffffffffffffffffffffffffffffff16815260200190815260200160002060008473ffffffffffffffffffffffffffffffffffffffff1673ffffffffffffffffffffffffffffffffffffffff168152602001908152602001600020819055508173ffffffffffffffffffffffffffffffffffffffff168373ffffffffffffffffffffffffffffffffffffffff167f8c5be1e5ebec7d5bd14f71427d1e84f3dd0314c0f7b2291e5b200ac8c7c3b92583604051610fb09190611919565b60405180910390a3505050565b600073ffffffffffffffffffffffffffffffffffffffff168273ffffffffffffffffffffffffffffffffffffffff160361102c576040517f08c379a0000000000000000000000000000000000000000000000000000000008152600401611023906120f7565b60405180910390fd5b611038826000836115e2565b60008060008473ffffffffffffffffffffffffffffffffffffffff1673ffffffffffffffffffffffffffffffffffffffff168152602001908152602001600020549050818110156110be576040517f08c379a00000000000000000000000000000000000000000000000000000000081526004016110b590612189565b60405180910390fd5b8181036000808573ffffffffffffffffffffffffffffffffffffffff1673ffffffffffffffffffffffffffffffffffffffff1681526020019081526020016000208190555081600260008282540392505081905550600073ffffffffffffffffffffffffffffffffffffffff168373ffffffffffffffffffffffffffffffffffffffff167fddf252ad1be2c89b69c2b068fc378daa952ba7f163c4a11628f55a4df523b3ef846040516111719190611919565b60405180910390a3611185836000846115e7565b505050565b60006111968484610d65565b90507fffffffffffffffffffffffffffffffffffffffffffffffffffffffffffffffff81146112105781811015611202576040517f08c379a00000000000000000000000000000000000000000000000000000000081526004016111f9906121f5565b60405180910390fd5b61120f8484848403610df4565b5b50505050565b600073ffffffffffffffffffffffffffffffffffffffff168373ffffffffffffffffffffffffffffffffffffffff1603611285576040517f08c379a000000000000000000000000000000000000000000000000000000000815260040161127c90612287565b60405180910390fd5b600073ffffffffffffffffffffffffffffffffffffffff168273ffffffffffffffffffffffffffffffffffffffff16036112f4576040517f08c379a00000000000000000000000000000000000000000000000000000000081526004016112eb90612319565b60405180910390fd5b6112ff8383836115e2565b60008060008573ffffffffffffffffffffffffffffffffffffffff1673ffffffffffffffffffffffffffffffffffffffff16815260200190815260200160002054905081811015611385576040517f08c379a000000000000000000000000000000000000000000000000000000000815260040161137c906123ab565b60405180910390fd5b8181036000808673ffffffffffffffffffffffffffffffffffffffff1673ffffffffffffffffffffffffffffffffffffffff16815260200190815260200160002081905550816000808573ffffffffffffffffffffffffffffffffffffffff1673ffffffffffffffffffffffffffffffffffffffff168152602001908152602001600020600082825401925050819055508273ffffffffffffffffffffffffffffffffffffffff168473ffffffffffffffffffffffffffffffffffffffff167fddf252ad1be2c89b69c2b068fc378daa952ba7f163c4a11628f55a4df523b3ef846040516114739190611919565b60405180910390a36114868484846115e7565b50505050565b600073ffffffffffffffffffffffffffffffffffffffff168273ffffffffffffffffffffffffffffffffffffffff16036114fb576040517f08c379a00000000000000000000000000000000000000000000000000000000081526004016114f290612417565b60405180910390fd5b611507600083836115e2565b80600260008282546115199190611e9b565b92505081905550806000808473ffffffffffffffffffffffffffffffffffffffff1673ffffffffffffffffffffffffffffffffffffffff168152602001908152602001600020600082825401925050819055508173ffffffffffffffffffffffffffffffffffffffff16600073ffffffffffffffffffffffffffffffffffffffff167fddf252ad1be2c89b69c2b068fc378daa952ba7f163c4a11628f55a4df523b3ef836040516115ca9190611919565b60405180910390a36115de600083836115e7565b5050565b505050565b505050565b6040518060400160405280600073ffffffffffffffffffffffffffffffffffffffff168152602001600081525090565b600081519050919050565b600082825260208201905092915050565b6000819050602082019050919050565b600073ffffffffffffffffffffffffffffffffffffffff82169050919050565b600061167382611648565b9050919050565b61168381611668565b82525050565b6000819050919050565b61169c81611689565b82525050565b6040820160008201516116b8600085018261167a565b5060208201516116cb6020850182611693565b50505050565b60006116dd83836116a2565b60408301905092915050565b6000602082019050919050565b60006117018261161c565b61170b8185611627565b935061171683611638565b8060005b8381101561174757815161172e88826116d1565b9750611739836116e9565b92505060018101905061171a565b5085935050505092915050565b6000602082019050818103600083015261176e81846116f6565b905092915050565b600081519050919050565b600082825260208201905092915050565b60005b838110156117b0578082015181840152602081019050611795565b60008484015250505050565b6000601f19601f8301169050919050565b60006117d882611776565b6117e28185611781565b93506117f2818560208601611792565b6117fb816117bc565b840191505092915050565b6000602082019050818103600083015261182081846117cd565b905092915050565b6000604051905090565b600080fd5b600080fd5b61184581611668565b811461185057600080fd5b50565b6000813590506118628161183c565b92915050565b61187181611689565b811461187c57600080fd5b50565b60008135905061188e81611868565b92915050565b600080604083850312156118ab576118aa611832565b5b60006118b985828601611853565b92505060206118ca8582860161187f565b9150509250929050565b60008115159050919050565b6118e9816118d4565b82525050565b600060208201905061190460008301846118e0565b92915050565b61191381611689565b82525050565b600060208201905061192e600083018461190a565b92915050565b60008060006060848603121561194d5761194c611832565b5b600061195b86828701611853565b935050602061196c86828701611853565b925050604061197d8682870161187f565b9150509250925092565b61199081611668565b82525050565b60006020820190506119ab6000830184611987565b92915050565b6000602082840312156119c7576119c6611832565b5b60006119d58482850161187f565b91505092915050565b600080fd5b7f4e487b7100000000000000000000000000000000000000000000000000000000600052604160045260246000fd5b611a1b826117bc565b810181811067ffffffffffffffff82111715611a3a57611a396119e3565b5b80604052505050565b6000611a4d611828565b9050611a598282611a12565b919050565b600067ffffffffffffffff821115611a7957611a786119e3565b5b602082029050602081019050919050565b600080fd5b6000611aa2611a9d84611a5e565b611a43565b90508083825260208201905060208402830185811115611ac557611ac4611a8a565b5b835b81811015611aee5780611ada8882611853565b845260208401935050602081019050611ac7565b5050509392505050565b600082601f830112611b0d57611b0c6119de565b5b8135611b1d848260208601611a8f565b91505092915050565b600067ffffffffffffffff821115611b4157611b406119e3565b5b602082029050602081019050919050565b6000611b65611b6084611b26565b611a43565b90508083825260208201905060208402830185811115611b8857611b87611a8a565b5b835b81811015611bb15780611b9d888261187f565b845260208401935050602081019050611b8a565b5050509392505050565b600082601f830112611bd057611bcf6119de565b5b8135611be0848260208601611b52565b91505092915050565b60008060408385031215611c0057611bff611832565b5b600083013567ffffffffffffffff811115611c1e57611c1d611837565b5b611c2a85828601611af8565b925050602083013567ffffffffffffffff811115611c4b57611c4a611837565b5b611c5785828601611bbb565b9150509250929050565b600060ff82169050919050565b611c7781611c61565b82525050565b6000602082019050611c926000830184611c6e565b92915050565b600060208284031215611cae57611cad611832565b5b6000611cbc84828501611853565b91505092915050565b60008060408385031215611cdc57611cdb611832565b5b6000611cea85828601611853565b9250506020611cfb85828601611853565b9150509250929050565b7f4e487b7100000000000000000000000000000000000000000000000000000000600052603260045260246000fd5b7f4e487b7100000000000000000000000000000000000000000000000000000000600052602260045260246000fd5b60006002820490506001821680611d7b57607f821691505b602082108103611d8e57611d8d611d34565b5b50919050565b7f4255524e45525f4f4e4c59000000000000000000000000000000000000000000600082015250565b6000611dca600b83611781565b9150611dd582611d94565b602082019050919050565b60006020820190508181036000830152611df981611dbd565b9050919050565b7f4f574e45525f4f4e4c5900000000000000000000000000000000000000000000600082015250565b6000611e36600a83611781565b9150611e4182611e00565b602082019050919050565b60006020820190508181036000830152611e6581611e29565b9050919050565b7f4e487b7100000000000000000000000000000000000000000000000000000000600052601160045260246000fd5b6000611ea682611689565b9150611eb183611689565b9250828201905080821115611ec957611ec8611e6c565b5b92915050565b7f45524332303a2064656372656173656420616c6c6f77616e63652062656c6f7760008201527f207a65726f000000000000000000000000000000000000000000000000000000602082015250565b6000611f2b602583611781565b9150611f3682611ecf565b604082019050919050565b60006020820190508181036000830152611f5a81611f1e565b9050919050565b7f45524332303a20617070726f76652066726f6d20746865207a65726f2061646460008201527f7265737300000000000000000000000000000000000000000000000000000000602082015250565b6000611fbd602483611781565b9150611fc882611f61565b604082019050919050565b60006020820190508181036000830152611fec81611fb0565b9050919050565b7f45524332303a20617070726f766520746f20746865207a65726f20616464726560008201527f7373000000000000000000000000000000000000000000000000000000000000602082015250565b600061204f602283611781565b915061205a82611ff3565b604082019050919050565b6000602082019050818103600083015261207e81612042565b9050919050565b7f45524332303a206275726e2066726f6d20746865207a65726f2061646472657360008201527f7300000000000000000000000000000000000000000000000000000000000000602082015250565b60006120e1602183611781565b91506120ec82612085565b604082019050919050565b60006020820190508181036000830152612110816120d4565b9050919050565b7f45524332303a206275726e20616d6f756e7420657863656564732062616c616e60008201527f6365000000000000000000000000000000000000000000000000000000000000602082015250565b6000612173602283611781565b915061217e82612117565b604082019050919050565b600060208201905081810360008301526121a281612166565b9050919050565b7f45524332303a20696e73756666696369656e7420616c6c6f77616e6365000000600082015250565b60006121df601d83611781565b91506121ea826121a9565b602082019050919050565b6000602082019050818103600083015261220e816121d2565b9050919050565b7f45524332303a207472616e736665722066726f6d20746865207a65726f20616460008201527f6472657373000000000000000000000000000000000000000000000000000000602082015250565b6000612271602583611781565b915061227c82612215565b604082019050919050565b600060208201905081810360008301526122a081612264565b9050919050565b7f45524332303a207472616e7366657220746f20746865207a65726f206164647260008201527f6573730000000000000000000000000000000000000000000000000000000000602082015250565b6000612303602383611781565b915061230e826122a7565b604082019050919050565b60006020820190508181036000830152612332816122f6565b9050919050565b7f45524332303a207472616e7366657220616d6f756e742065786365656473206260008201527f616c616e63650000000000000000000000000000000000000000000000000000602082015250565b6000612395602683611781565b91506123a082612339565b604082019050919050565b600060208201905081810360008301526123c481612388565b9050919050565b7f45524332303a206d696e7420746f20746865207a65726f206164647265737300600082015250565b6000612401601f83611781565b915061240c826123cb565b602082019050919050565b60006020820190508181036000830152612430816123f4565b905091905056fea2646970667358221220a4e0e12359e79d672bc6d720cd0665c083ebe9f2d0107d03e8530f73025aabd164736f6c634300081a0033",
  "linkReferences": {},
  "deployedLinkReferences": {}
}