{
  "_format": "hh-sol-artifact-1",
  "contractName": "BrainNFT",
  "sourceName": "contracts/BrainNFT.sol",
  "abi": [
    {
      "inputs": [
        {
          "internalType": "address",
          "name": "bitToken_",
          "type": "address"
        },
        {
          "internalType": "string",
          "name": "baseURI_",
          "type": "string"
        }
      ],
      "stateMutability": "nonpayable",
      "type": "constructor"
    },
    {
      "inputs": [
        {
          "internalType": "address",
          "name": "sender",
          "type": "address"
        },
        {
          "internalType": "uint256",
          "name": "tokenId",
          "type": "uint256"
        },
        {
          "internalType": "address",
          "name": "owner",
          "type": "address"
        }
      ],
      "name": "ERC721IncorrectOwner",
      "type": "error"
    },
    {
      "inputs": [
        {
          "internalType": "address",
          "name": "operator",
          "type": "address"
        },
        {
          "internalType": "uint256",
          "name": "tokenId",
          "type": "uint256"
        }
      ],
      "name": "ERC721InsufficientApproval",
      "type": "error"
    },
    {
      "inputs": [
        {
          "internalType": "address",
          "name": "approver",
          "type": "address"
        }
      ],
      "name": "ERC721InvalidApprover",
      "type": "error"
    },
    {
      "inputs": [
        {
          "internalType": "address",
          "name": "operator",
          "type": "address"
        }
      ],
      "name": "ERC721InvalidOperator",
      "type": "error"
    },
    {
      "inputs": [
        {
          "internalType": "address",
          "name": "owner",
          "type": "address"
        }
      ],
      "name": "ERC721InvalidOwner",
      "type": "error"
    },
    {
      "inputs": [
        {
          "internalType": "address",
          "name": "receiver",
          "type": "address"
        }
      ],
      "name": "ERC721InvalidReceiver",
      "type": "error"
    },
    {
      "inputs": [
        {
          "internalType": "address",
          "name": "sender",
          "type": "address"
        }
      ],
      "name": "ERC721InvalidSender",
      "type": "error"
    },
    {
      "inputs": [
        {
          "internalType": "uint256",
          "name": "tokenId",
          "type": "uint256"
        }
      ],
      "name": "ERC721NonexistentToken",
      "type": "error"
    },
    {
      "anonymous": false,
      "inputs": [
        {
          "indexed": true,
          "internalType": "address",
          "name": "owner",
          "type": "address"
        },
        {
          "indexed": true,
          "internalType": "address",
          "name": "approved",
          "type": "address"
        },
        {
          "indexed": true,
          "internalType": "uint256",
          "name": "tokenId",
          "type": "uint256"
        }
      ],
      "name": "Approval",
      "type": "event"
    },
    {
      "anonymous": false,
      "inputs": [
        {
          "indexed": true,
          "internalType": "address",
          "name": "owner",
          "type": "address"
        },
        {
          "indexed": true,
          "internalType": "address",
          "name": "operator",
          "type": "address"
        },
        {
          "indexed": false,
          "internalType": "bool",
          "name": "approved",
          "type": "bool"
        }
      ],
      "name": "ApprovalForAll",
      "type": "event"
    },
    {
      "inputs": [
        {
          "internalType": "address",
          "name": "to",
          "type": "address"
        },
        {
          "internalType": "uint256",
          "name": "tokenId",
          "type": "uint256"
        }
      ],
      "name": "approve",
      "outputs": [],
      "stateMutability": "nonpayable",
      "type": "function"
    },
    {
      "anonymous": false,
      "inputs": [
        {
          "indexed": false,
          "internalType": "uint256",
          "name": "_fromTokenId",
          "type": "uint256"
        },
        {
          "indexed": false,
          "internalType": "uint256",
          "name": "_toTokenId",
          "type": "uint256"
        }
      ],
      "name": "BatchMetadataUpdate",
      "type": "event"
    },
    {
      "inputs": [
        {
          "internalType": "uint256",
          "name": "nftIndex",
          "type": "uint256"
        }
      ],
      "name": "claimNFT",
      "outputs": [],
      "stateMutability": "nonpayable",
      "type": "function"
    },
    {
      "anonymous": false,
      "inputs": [
        {
          "indexed": false,
          "internalType": "uint256",
          "name": "_tokenId",
          "type": "uint256"
        }
      ],
      "name": "MetadataUpdate",
      "type": "event"
    },
    {
      "inputs": [
        {
          "internalType": "address",
          "name": "from",
          "type": "address"
        },
        {
          "internalType": "address",
          "name": "to",
          "type": "address"
        },
        {
          "internalType": "uint256",
          "name": "tokenId",
          "type": "uint256"
        }
      ],
      "name": "safeTransferFrom",
      "outputs": [],
      "stateMutability": "nonpayable",
      "type": "function"
    },
    {
      "inputs": [
        {
          "internalType": "address",
          "name": "from",
          "type": "address"
        },
        {
          "internalType": "address",
          "name": "to",
          "type": "address"
        },
        {
          "internalType": "uint256",
          "name": "tokenId",
          "type": "uint256"
        },
        {
          "internalType": "bytes",
          "name": "data",
          "type": "bytes"
        }
      ],
      "name": "safeTransferFrom",
      "outputs": [],
      "stateMutability": "nonpayable",
      "type": "function"
    },
    {
      "inputs": [
        {
          "internalType": "address",
          "name": "operator",
          "type": "address"
        },
        {
          "internalType": "bool",
          "name": "approved",
          "type": "bool"
        }
      ],
      "name": "setApprovalForAll",
      "outputs": [],
      "stateMutability": "nonpayable",
      "type": "function"
    },
    {
      "inputs": [
        {
          "internalType": "string",
          "name": "baseURI_",
          "type": "string"
        }
      ],
      "name": "setBaseURI",
      "outputs": [],
      "stateMutability": "nonpayable",
      "type": "function"
    },
    {
      "anonymous": false,
      "inputs": [
        {
          "indexed": true,
          "internalType": "address",
          "name": "from",
          "type": "address"
        },
        {
          "indexed": true,
          "internalType": "address",
          "name": "to",
          "type": "address"
        },
        {
          "indexed": true,
          "internalType": "uint256",
          "name": "tokenId",
          "type": "uint256"
        }
      ],
      "name": "Transfer",
      "type": "event"
    },
    {
      "inputs": [
        {
          "internalType": "address",
          "name": "from",
          "type": "address"
        },
        {
          "internalType": "address",
          "name": "to",
          "type": "address"
        },
        {
          "internalType": "uint256",
          "name": "tokenId",
          "type": "uint256"
        }
      ],
      "name": "transferFrom",
      "outputs": [],
      "stateMutability": "nonpayable",
      "type": "function"
    },
    {
      "inputs": [
        {
          "internalType": "address",
          "name": "owner",
          "type": "address"
        }
      ],
      "name": "balanceOf",
      "outputs": [
        {
          "internalType": "uint256",
          "name": "",
          "type": "uint256"
        }
      ],
      "stateMutability": "view",
      "type": "function"
    },
    {
      "inputs": [],
      "name": "bitToken",
      "outputs": [
        {
          "internalType": "address",
          "name": "",
          "type": "address"
        }
      ],
      "stateMutability": "view",
      "type": "function"
    },
    {
      "inputs": [],
      "name": "BRONZE_THRESHOLD",
      "outputs": [
        {
          "internalType": "uint256",
          "name": "",
          "type": "uint256"
        }
      ],
      "stateMutability": "view",
      "type": "function"
    },
    {
      "inputs": [],
      "name": "CLAIM_NFT_REWARD",
      "outputs": [
        {
          "internalType": "uint256",
          "name": "",
          "type": "uint256"
        }
      ],
      "stateMutability": "view",
      "type": "function"
    },
    {
      "inputs": [
        {
          "internalType": "uint256",
          "name": "tokenId",
          "type": "uint256"
        }
      ],
      "name": "getApproved",
      "outputs": [
        {
          "internalType": "address",
          "name": "",
          "type": "address"
        }
      ],
      "stateMutability": "view",
      "type": "function"
    },
    {
      "inputs": [
        {
          "internalType": "address",
          "name": "user",
          "type": "address"
        }
      ],
      "name": "getOwnershipCount",
      "outputs": [
        {
          "internalType": "uint256[]",
          "name": "",
          "type": "uint256[]"
        }
      ],
      "stateMutability": "view",
      "type": "function"
    },
    {
      "inputs": [],
      "name": "GOLD_THRESHOLD",
      "outputs": [
        {
          "internalType": "uint256",
          "name": "",
          "type": "uint256"
        }
      ],
      "stateMutability": "view",
      "type": "function"
    },
    {
      "inputs": [
        {
          "internalType": "address",
          "name": "owner",
          "type": "address"
        },
        {
          "internalType": "address",
          "name": "operator",
          "type": "address"
        }
      ],
      "name": "isApprovedForAll",
      "outputs": [
        {
          "internalType": "bool",
          "name": "",
          "type": "bool"
        }
      ],
      "stateMutability": "view",
      "type": "function"
    },
    {
      "inputs": [],
      "name": "name",
      "outputs": [
        {
          "internalType": "string",
          "name": "",
          "type": "string"
        }
      ],
      "stateMutability": "view",
      "type": "function"
    },
    {
      "inputs": [],
      "name": "NFT_AMOUNT",
      "outputs": [
        {
          "internalType": "uint256",
          "name": "",
          "type": "uint256"
        }
      ],
      "stateMutability": "view",
      "type": "function"
    },
    {
      "inputs": [],
      "name": "owner",
      "outputs": [
        {
          "internalType": "address",
          "name": "",
          "type": "address"
        }
      ],
      "stateMutability": "view",
      "type": "function"
    },
    {
      "inputs": [
        {
          "internalType": "uint256",
          "name": "tokenId",
          "type": "uint256"
        }
      ],
      "name": "ownerOf",
      "outputs": [
        {
          "internalType": "address",
          "name": "",
          "type": "address"
        }
      ],
      "stateMutability": "view",
      "type": "function"
    },
    {
      "inputs": [],
      "name": "SILVER_THRESHOLD",
      "outputs": [
        {
          "internalType": "uint256",
          "name": "",
          "type": "uint256"
        }
      ],
      "stateMutability": "view",
      "type": "function"
    },
    {
      "inputs": [
        {
          "internalType": "bytes4",
          "name": "interfaceId",
          "type": "bytes4"
        }
      ],
      "name": "supportsInterface",
      "outputs": [
        {
          "internalType": "bool",
          "name": "",
          "type": "bool"
        }
      ],
      "stateMutability": "view",
      "type": "function"
    },
    {
      "inputs": [],
      "name": "symbol",
      "outputs": [
        {
          "internalType": "string",
          "name": "",
          "type": "string"
        }
      ],
      "stateMutability": "view",
      "type": "function"
    },
    {
      "inputs": [
        {
          "internalType": "uint256",
          "name": "tokenId",
          "type": "uint256"
        }
      ],
      "name": "tokenURI",
      "outputs": [
        {
          "internalType": "string",
          "name": "",
          "type": "string"
        }
      ],
      "stateMutability": "view",
      "type": "function"
    }
  ],
  "bytecode": "608060405234801561000f575f80fd5b506040516134a43803806134a4833981810160405281019061003191906102bc565b6040518060400160405280600981526020017f427261696e204e465400000000000000000000000000000000000000000000008152506040518060400160405280600481526020017f424e465400000000000000000000000000000000000000000000000000000000815250815f90816100ab9190610523565b5080600190816100bb9190610523565b50505080600a90816100cd9190610523565b508160085f6101000a81548173ffffffffffffffffffffffffffffffffffffffff021916908373ffffffffffffffffffffffffffffffffffffffff16021790555050506105f2565b5f604051905090565b5f80fd5b5f80fd5b5f73ffffffffffffffffffffffffffffffffffffffff82169050919050565b5f61014f82610126565b9050919050565b61015f81610145565b8114610169575f80fd5b50565b5f8151905061017a81610156565b92915050565b5f80fd5b5f80fd5b5f601f19601f8301169050919050565b7f4e487b71000000000000000000000000000000000000000000000000000000005f52604160045260245ffd5b6101ce82610188565b810181811067ffffffffffffffff821117156101ed576101ec610198565b5b80604052505050565b5f6101ff610115565b905061020b82826101c5565b919050565b5f67ffffffffffffffff82111561022a57610229610198565b5b61023382610188565b9050602081019050919050565b8281835e5f83830152505050565b5f61026061025b84610210565b6101f6565b90508281526020810184848401111561027c5761027b610184565b5b610287848285610240565b509392505050565b5f82601f8301126102a3576102a2610180565b5b81516102b384826020860161024e565b91505092915050565b5f80604083850312156102d2576102d161011e565b5b5f6102df8582860161016c565b925050602083015167ffffffffffffffff811115610300576102ff610122565b5b61030c8582860161028f565b9150509250929050565b5f81519050919050565b7f4e487b71000000000000000000000000000000000000000000000000000000005f52602260045260245ffd5b5f600282049050600182168061036457607f821691505b60208210810361037757610376610320565b5b50919050565b5f819050815f5260205f209050919050565b5f6020601f8301049050919050565b5f82821b905092915050565b5f600883026103d97fffffffffffffffffffffffffffffffffffffffffffffffffffffffffffffffff8261039e565b6103e3868361039e565b95508019841693508086168417925050509392505050565b5f819050919050565b5f819050919050565b5f61042761042261041d846103fb565b610404565b6103fb565b9050919050565b5f819050919050565b6104408361040d565b61045461044c8261042e565b8484546103aa565b825550505050565b5f90565b61046861045c565b610473818484610437565b505050565b5b818110156104965761048b5f82610460565b600181019050610479565b5050565b601f8211156104db576104ac8161037d565b6104b58461038f565b810160208510156104c4578190505b6104d86104d08561038f565b830182610478565b50505b505050565b5f82821c905092915050565b5f6104fb5f19846008026104e0565b1980831691505092915050565b5f61051383836104ec565b9150826002028217905092915050565b61052c82610316565b67ffffffffffffffff81111561054557610544610198565b5b61054f825461034d565b61055a82828561049a565b5f60209050601f83116001811461058b575f8415610579578287015190505b6105838582610508565b8655506105ea565b601f1984166105998661037d565b5f5b828110156105c05784890151825560018201915060208501945060208101905061059b565b868310156105dd57848901516105d9601f8916826104ec565b8355505b6001600288020188555050505b505050505050565b612ea5806105ff5f395ff3fe608060405234801561000f575f80fd5b506004361061014b575f3560e01c80638da5cb5b116100c1578063c87b56dd1161007a578063c87b56dd14610389578063d84e9f92146103b9578063e4e0bc46146103d7578063e985e9c514610407578063f18785a814610437578063fe5c873a146104555761014b565b80638da5cb5b146102d95780638f53be1f146102f757806395d89b4114610315578063a22cb46514610333578063b88d4fde1461034f578063c1a0db301461036b5761014b565b806342842e0e1161011357806342842e0e1461020557806355f804b314610221578063569739741461023d5780636352211e1461025b57806369a2f0261461028b57806370a08231146102a95761014b565b806301ffc9a71461014f57806306fdde031461017f578063081812fc1461019d578063095ea7b3146101cd57806323b872dd146101e9575b5f80fd5b61016960048036038101906101649190612009565b610471565b604051610176919061204e565b60405180910390f35b6101876104d1565b60405161019491906120d7565b60405180910390f35b6101b760048036038101906101b2919061212a565b610560565b6040516101c49190612194565b60405180910390f35b6101e760048036038101906101e291906121d7565b61057b565b005b61020360048036038101906101fe9190612215565b610591565b005b61021f600480360381019061021a9190612215565b610690565b005b61023b60048036038101906102369190612391565b6106af565b005b610245610751565b60405161025291906123e7565b60405180910390f35b6102756004803603810190610270919061212a565b61075e565b6040516102829190612194565b60405180910390f35b61029361076f565b6040516102a091906123e7565b60405180910390f35b6102c360048036038101906102be9190612400565b61077c565b6040516102d091906123e7565b60405180910390f35b6102e1610832565b6040516102ee9190612194565b60405180910390f35b6102ff610857565b60405161030c91906123e7565b60405180910390f35b61031d61085c565b60405161032a91906120d7565b60405180910390f35b61034d60048036038101906103489190612455565b6108ec565b005b61036960048036038101906103649190612531565b610902565b005b610373610927565b60405161038091906123e7565b60405180910390f35b6103a3600480360381019061039e919061212a565b610934565b6040516103b091906120d7565b60405180910390f35b6103c1610a3f565b6040516103ce9190612194565b60405180910390f35b6103f160048036038101906103ec9190612400565b610a64565b6040516103fe9190612668565b60405180910390f35b610421600480360381019061041c9190612688565b610b56565b60405161042e919061204e565b60405180910390f35b61043f610be4565b60405161044c91906123e7565b60405180910390f35b61046f600480360381019061046a919061212a565b610be9565b005b5f634906490660e01b7bffffffffffffffffffffffffffffffffffffffffffffffffffffffff1916827bffffffffffffffffffffffffffffffffffffffffffffffffffffffff191614806104ca57506104c982610f81565b5b9050919050565b60605f80546104df906126f3565b80601f016020809104026020016040519081016040528092919081815260200182805461050b906126f3565b80156105565780601f1061052d57610100808354040283529160200191610556565b820191905f5260205f20905b81548152906001019060200180831161053957829003601f168201915b5050505050905090565b5f61056a82611062565b50610574826110e8565b9050919050565b61058d8282610588611121565b611128565b5050565b5f73ffffffffffffffffffffffffffffffffffffffff168273ffffffffffffffffffffffffffffffffffffffff1603610601575f6040517f64a0ae920000000000000000000000000000000000000000000000000000000081526004016105f89190612194565b60405180910390fd5b5f610614838361060f611121565b61113a565b90508373ffffffffffffffffffffffffffffffffffffffff168173ffffffffffffffffffffffffffffffffffffffff161461068a578382826040517f64283d7b00000000000000000000000000000000000000000000000000000000815260040161068193929190612723565b60405180910390fd5b50505050565b6106aa83838360405180602001604052805f815250610902565b505050565b60075f9054906101000a900473ffffffffffffffffffffffffffffffffffffffff1673ffffffffffffffffffffffffffffffffffffffff163373ffffffffffffffffffffffffffffffffffffffff161461073e576040517f08c379a0000000000000000000000000000000000000000000000000000000008152600401610735906127a2565b60405180910390fd5b80600a908161074d919061295d565b5050565b681b1ae4d6e2ef50000081565b5f61076882611062565b9050919050565b6802b5e3af16b188000081565b5f8073ffffffffffffffffffffffffffffffffffffffff168273ffffffffffffffffffffffffffffffffffffffff16036107ed575f6040517f89c62b640000000000000000000000000000000000000000000000000000000081526004016107e49190612194565b60405180910390fd5b60035f8373ffffffffffffffffffffffffffffffffffffffff1673ffffffffffffffffffffffffffffffffffffffff1681526020019081526020015f20549050919050565b60075f9054906101000a900473ffffffffffffffffffffffffffffffffffffffff1681565b601481565b60606001805461086b906126f3565b80601f0160208091040260200160405190810160405280929190818152602001828054610897906126f3565b80156108e25780601f106108b9576101008083540402835291602001916108e2565b820191905f5260205f20905b8154815290600101906020018083116108c557829003601f168201915b5050505050905090565b6108fe6108f7611121565b8383611345565b5050565b61090d848484610591565b610921610918611121565b858585856114ae565b50505050565b681043561a882930000081565b606061093f82611062565b505f60065f8481526020019081526020015f20805461095d906126f3565b80601f0160208091040260200160405190810160405280929190818152602001828054610989906126f3565b80156109d45780601f106109ab576101008083540402835291602001916109d4565b820191905f5260205f20905b8154815290600101906020018083116109b757829003601f168201915b505050505090505f6109e461165a565b90505f8151036109f8578192505050610a3a565b5f82511115610a2c578082604051602001610a14929190612a66565b60405160208183030381529060405292505050610a3a565b610a35846116ea565b925050505b919050565b60085f9054906101000a900473ffffffffffffffffffffffffffffffffffffffff1681565b60605f60016009610a759190612ab6565b67ffffffffffffffff811115610a8e57610a8d61226d565b5b604051908082528060200260200182016040528015610abc5781602001602082028036833780820191505090505b5090505f600190505b60098111610b4c5760095f8573ffffffffffffffffffffffffffffffffffffffff1673ffffffffffffffffffffffffffffffffffffffff1681526020019081526020015f205f8281526020019081526020015f2054828281518110610b2d57610b2c612ae9565b5b6020026020010181815250508080610b4490612b16565b915050610ac5565b5080915050919050565b5f60055f8473ffffffffffffffffffffffffffffffffffffffff1673ffffffffffffffffffffffffffffffffffffffff1681526020019081526020015f205f8373ffffffffffffffffffffffffffffffffffffffff1673ffffffffffffffffffffffffffffffffffffffff1681526020019081526020015f205f9054906101000a900460ff16905092915050565b600981565b3073ffffffffffffffffffffffffffffffffffffffff1660085f9054906101000a900473ffffffffffffffffffffffffffffffffffffffff1673ffffffffffffffffffffffffffffffffffffffff166327810b6e6040518163ffffffff1660e01b8152600401602060405180830381865afa158015610c6a573d5f803e3d5ffd5b505050506040513d601f19601f82011682018060405250810190610c8e9190612b71565b73ffffffffffffffffffffffffffffffffffffffff1614610ce4576040517f08c379a0000000000000000000000000000000000000000000000000000000008152600401610cdb90612be6565b60405180910390fd5b60018110158015610cf6575060098111155b610d35576040517f08c379a0000000000000000000000000000000000000000000000000000000008152600401610d2c90612c4e565b60405180910390fd5b5f6802b5e3af16b188000090506007821115610d5c57681b1ae4d6e2ef5000009050610d73565b6002821115610d7257681043561a882930000090505b5b8060085f9054906101000a900473ffffffffffffffffffffffffffffffffffffffff1673ffffffffffffffffffffffffffffffffffffffff166370a08231336040518263ffffffff1660e01b8152600401610dce9190612194565b602060405180830381865afa158015610de9573d5f803e3d5ffd5b505050506040513d601f19601f82011682018060405250810190610e0d9190612c80565b1015610e4e576040517f08c379a0000000000000000000000000000000000000000000000000000000008152600401610e4590612cf5565b60405180910390fd5b60085f9054906101000a900473ffffffffffffffffffffffffffffffffffffffff1673ffffffffffffffffffffffffffffffffffffffff16630d1118ce33836040518363ffffffff1660e01b8152600401610eaa929190612d13565b5f604051808303815f87803b158015610ec1575f80fd5b505af1158015610ed3573d5f803e3d5ffd5b50505050610ee1600b611750565b5f610eec600b611764565b9050610ef83382611770565b610f0a81610f0585611863565b61192d565b610f1b610f1682610934565b611987565b60095f3373ffffffffffffffffffffffffffffffffffffffff1673ffffffffffffffffffffffffffffffffffffffff1681526020019081526020015f205f8481526020019081526020015f205f815480929190610f7790612b16565b9190505550505050565b5f7f80ac58cd000000000000000000000000000000000000000000000000000000007bffffffffffffffffffffffffffffffffffffffffffffffffffffffff1916827bffffffffffffffffffffffffffffffffffffffffffffffffffffffff1916148061104b57507f5b5e139f000000000000000000000000000000000000000000000000000000007bffffffffffffffffffffffffffffffffffffffffffffffffffffffff1916827bffffffffffffffffffffffffffffffffffffffffffffffffffffffff1916145b8061105b575061105a82611a20565b5b9050919050565b5f8061106d83611a89565b90505f73ffffffffffffffffffffffffffffffffffffffff168173ffffffffffffffffffffffffffffffffffffffff16036110df57826040517f7e2732890000000000000000000000000000000000000000000000000000000081526004016110d691906123e7565b60405180910390fd5b80915050919050565b5f60045f8381526020019081526020015f205f9054906101000a900473ffffffffffffffffffffffffffffffffffffffff169050919050565b5f33905090565b6111358383836001611ac2565b505050565b5f8061114584611a89565b90505f73ffffffffffffffffffffffffffffffffffffffff168373ffffffffffffffffffffffffffffffffffffffff161461118657611185818486611c81565b5b5f73ffffffffffffffffffffffffffffffffffffffff168173ffffffffffffffffffffffffffffffffffffffff1614611211576111c55f855f80611ac2565b600160035f8373ffffffffffffffffffffffffffffffffffffffff1673ffffffffffffffffffffffffffffffffffffffff1681526020019081526020015f205f82825403925050819055505b5f73ffffffffffffffffffffffffffffffffffffffff168573ffffffffffffffffffffffffffffffffffffffff161461129057600160035f8773ffffffffffffffffffffffffffffffffffffffff1673ffffffffffffffffffffffffffffffffffffffff1681526020019081526020015f205f82825401925050819055505b8460025f8681526020019081526020015f205f6101000a81548173ffffffffffffffffffffffffffffffffffffffff021916908373ffffffffffffffffffffffffffffffffffffffff160217905550838573ffffffffffffffffffffffffffffffffffffffff168273ffffffffffffffffffffffffffffffffffffffff167fddf252ad1be2c89b69c2b068fc378daa952ba7f163c4a11628f55a4df523b3ef60405160405180910390a4809150509392505050565b5f73ffffffffffffffffffffffffffffffffffffffff168273ffffffffffffffffffffffffffffffffffffffff16036113b557816040517f5b08ba180000000000000000000000000000000000000000000000000000000081526004016113ac9190612194565b60405180910390fd5b8060055f8573ffffffffffffffffffffffffffffffffffffffff1673ffffffffffffffffffffffffffffffffffffffff1681526020019081526020015f205f8473ffffffffffffffffffffffffffffffffffffffff1673ffffffffffffffffffffffffffffffffffffffff1681526020019081526020015f205f6101000a81548160ff0219169083151502179055508173ffffffffffffffffffffffffffffffffffffffff168373ffffffffffffffffffffffffffffffffffffffff167f17307eab39ab6107e8899845ad3d59bd9653f200f220920489ca2b5937696c31836040516114a1919061204e565b60405180910390a3505050565b5f8373ffffffffffffffffffffffffffffffffffffffff163b1115611653578273ffffffffffffffffffffffffffffffffffffffff1663150b7a02868685856040518563ffffffff1660e01b815260040161150c9493929190612d8c565b6020604051808303815f875af192505050801561154757506040513d601f19601f820116820180604052508101906115449190612dea565b60015b6115c8573d805f8114611575576040519150601f19603f3d011682016040523d82523d5f602084013e61157a565b606091505b505f8151036115c057836040517f64a0ae920000000000000000000000000000000000000000000000000000000081526004016115b79190612194565b60405180910390fd5b805181602001fd5b63150b7a0260e01b7bffffffffffffffffffffffffffffffffffffffffffffffffffffffff1916817bffffffffffffffffffffffffffffffffffffffffffffffffffffffff19161461165157836040517f64a0ae920000000000000000000000000000000000000000000000000000000081526004016116489190612194565b60405180910390fd5b505b5050505050565b6060600a8054611669906126f3565b80601f0160208091040260200160405190810160405280929190818152602001828054611695906126f3565b80156116e05780601f106116b7576101008083540402835291602001916116e0565b820191905f5260205f20905b8154815290600101906020018083116116c357829003601f168201915b5050505050905090565b60606116f582611062565b505f6116ff61165a565b90505f81511161171d5760405180602001604052805f815250611748565b8061172784611863565b604051602001611738929190612a66565b6040516020818303038152906040525b915050919050565b6001815f015f828254019250508190555050565b5f815f01549050919050565b5f73ffffffffffffffffffffffffffffffffffffffff168273ffffffffffffffffffffffffffffffffffffffff16036117e0575f6040517f64a0ae920000000000000000000000000000000000000000000000000000000081526004016117d79190612194565b60405180910390fd5b5f6117ec83835f61113a565b90505f73ffffffffffffffffffffffffffffffffffffffff168173ffffffffffffffffffffffffffffffffffffffff161461185e575f6040517f73c6ac6e0000000000000000000000000000000000000000000000000000000081526004016118559190612194565b60405180910390fd5b505050565b60605f600161187184611d44565b0190505f8167ffffffffffffffff81111561188f5761188e61226d565b5b6040519080825280601f01601f1916602001820160405280156118c15781602001600182028036833780820191505090505b5090505f82602001820190505b600115611922578080600190039150507f3031323334353637383961626364656600000000000000000000000000000000600a86061a8153600a858161191757611916612e15565b5b0494505f85036118ce575b819350505050919050565b8060065f8481526020019081526020015f20908161194b919061295d565b507ff8e1a15aba9398e019f0b49df1a4fde98ee17ae345cb5f6b5e2c27f5033e8ce78260405161197b91906123e7565b60405180910390a15050565b611a1d8160405160240161199b91906120d7565b6040516020818303038152906040527f41304fac000000000000000000000000000000000000000000000000000000007bffffffffffffffffffffffffffffffffffffffffffffffffffffffff19166020820180517bffffffffffffffffffffffffffffffffffffffffffffffffffffffff8381831617835250505050611e95565b50565b5f7f01ffc9a7000000000000000000000000000000000000000000000000000000007bffffffffffffffffffffffffffffffffffffffffffffffffffffffff1916827bffffffffffffffffffffffffffffffffffffffffffffffffffffffff1916149050919050565b5f60025f8381526020019081526020015f205f9054906101000a900473ffffffffffffffffffffffffffffffffffffffff169050919050565b8080611afa57505f73ffffffffffffffffffffffffffffffffffffffff168273ffffffffffffffffffffffffffffffffffffffff1614155b15611c2c575f611b0984611062565b90505f73ffffffffffffffffffffffffffffffffffffffff168373ffffffffffffffffffffffffffffffffffffffff1614158015611b7357508273ffffffffffffffffffffffffffffffffffffffff168173ffffffffffffffffffffffffffffffffffffffff1614155b8015611b865750611b848184610b56565b155b15611bc857826040517fa9fbf51f000000000000000000000000000000000000000000000000000000008152600401611bbf9190612194565b60405180910390fd5b8115611c2a57838573ffffffffffffffffffffffffffffffffffffffff168273ffffffffffffffffffffffffffffffffffffffff167f8c5be1e5ebec7d5bd14f71427d1e84f3dd0314c0f7b2291e5b200ac8c7c3b92560405160405180910390a45b505b8360045f8581526020019081526020015f205f6101000a81548173ffffffffffffffffffffffffffffffffffffffff021916908373ffffffffffffffffffffffffffffffffffffffff16021790555050505050565b611c8c838383611eaf565b611d3f575f73ffffffffffffffffffffffffffffffffffffffff168373ffffffffffffffffffffffffffffffffffffffff1603611d0057806040517f7e273289000000000000000000000000000000000000000000000000000000008152600401611cf791906123e7565b60405180910390fd5b81816040517f177e802f000000000000000000000000000000000000000000000000000000008152600401611d36929190612d13565b60405180910390fd5b505050565b5f805f90507a184f03e93ff9f4daa797ed6e38ed64bf6a1f0100000000000000008310611da0577a184f03e93ff9f4daa797ed6e38ed64bf6a1f0100000000000000008381611d9657611d95612e15565b5b0492506040810190505b6d04ee2d6d415b85acef81000000008310611ddd576d04ee2d6d415b85acef81000000008381611dd357611dd2612e15565b5b0492506020810190505b662386f26fc100008310611e0c57662386f26fc100008381611e0257611e01612e15565b5b0492506010810190505b6305f5e1008310611e35576305f5e1008381611e2b57611e2a612e15565b5b0492506008810190505b6127108310611e5a576127108381611e5057611e4f612e15565b5b0492506004810190505b60648310611e7d5760648381611e7357611e72612e15565b5b0492506002810190505b600a8310611e8c576001810190505b80915050919050565b611eac81611ea4611f6f611f8e565b63ffffffff16565b50565b5f8073ffffffffffffffffffffffffffffffffffffffff168373ffffffffffffffffffffffffffffffffffffffff1614158015611f6657508273ffffffffffffffffffffffffffffffffffffffff168473ffffffffffffffffffffffffffffffffffffffff161480611f275750611f268484610b56565b5b80611f6557508273ffffffffffffffffffffffffffffffffffffffff16611f4d836110e8565b73ffffffffffffffffffffffffffffffffffffffff16145b5b90509392505050565b5f6a636f6e736f6c652e6c6f6790505f80835160208501845afa505050565b611f99819050919050565b611fa1612e42565b565b5f604051905090565b5f80fd5b5f80fd5b5f7fffffffff0000000000000000000000000000000000000000000000000000000082169050919050565b611fe881611fb4565b8114611ff2575f80fd5b50565b5f8135905061200381611fdf565b92915050565b5f6020828403121561201e5761201d611fac565b5b5f61202b84828501611ff5565b91505092915050565b5f8115159050919050565b61204881612034565b82525050565b5f6020820190506120615f83018461203f565b92915050565b5f81519050919050565b5f82825260208201905092915050565b8281835e5f83830152505050565b5f601f19601f8301169050919050565b5f6120a982612067565b6120b38185612071565b93506120c3818560208601612081565b6120cc8161208f565b840191505092915050565b5f6020820190508181035f8301526120ef818461209f565b905092915050565b5f819050919050565b612109816120f7565b8114612113575f80fd5b50565b5f8135905061212481612100565b92915050565b5f6020828403121561213f5761213e611fac565b5b5f61214c84828501612116565b91505092915050565b5f73ffffffffffffffffffffffffffffffffffffffff82169050919050565b5f61217e82612155565b9050919050565b61218e81612174565b82525050565b5f6020820190506121a75f830184612185565b92915050565b6121b681612174565b81146121c0575f80fd5b50565b5f813590506121d1816121ad565b92915050565b5f80604083850312156121ed576121ec611fac565b5b5f6121fa858286016121c3565b925050602061220b85828601612116565b9150509250929050565b5f805f6060848603121561222c5761222b611fac565b5b5f612239868287016121c3565b935050602061224a868287016121c3565b925050604061225b86828701612116565b9150509250925092565b5f80fd5b5f80fd5b7f4e487b71000000000000000000000000000000000000000000000000000000005f52604160045260245ffd5b6122a38261208f565b810181811067ffffffffffffffff821117156122c2576122c161226d565b5b80604052505050565b5f6122d4611fa3565b90506122e0828261229a565b919050565b5f67ffffffffffffffff8211156122ff576122fe61226d565b5b6123088261208f565b9050602081019050919050565b828183375f83830152505050565b5f612335612330846122e5565b6122cb565b90508281526020810184848401111561235157612350612269565b5b61235c848285612315565b509392505050565b5f82601f83011261237857612377612265565b5b8135612388848260208601612323565b91505092915050565b5f602082840312156123a6576123a5611fac565b5b5f82013567ffffffffffffffff8111156123c3576123c2611fb0565b5b6123cf84828501612364565b91505092915050565b6123e1816120f7565b82525050565b5f6020820190506123fa5f8301846123d8565b92915050565b5f6020828403121561241557612414611fac565b5b5f612422848285016121c3565b91505092915050565b61243481612034565b811461243e575f80fd5b50565b5f8135905061244f8161242b565b92915050565b5f806040838503121561246b5761246a611fac565b5b5f612478858286016121c3565b925050602061248985828601612441565b9150509250929050565b5f67ffffffffffffffff8211156124ad576124ac61226d565b5b6124b68261208f565b9050602081019050919050565b5f6124d56124d084612493565b6122cb565b9050828152602081018484840111156124f1576124f0612269565b5b6124fc848285612315565b509392505050565b5f82601f83011261251857612517612265565b5b81356125288482602086016124c3565b91505092915050565b5f805f806080858703121561254957612548611fac565b5b5f612556878288016121c3565b9450506020612567878288016121c3565b935050604061257887828801612116565b925050606085013567ffffffffffffffff81111561259957612598611fb0565b5b6125a587828801612504565b91505092959194509250565b5f81519050919050565b5f82825260208201905092915050565b5f819050602082019050919050565b6125e3816120f7565b82525050565b5f6125f483836125da565b60208301905092915050565b5f602082019050919050565b5f612616826125b1565b61262081856125bb565b935061262b836125cb565b805f5b8381101561265b57815161264288826125e9565b975061264d83612600565b92505060018101905061262e565b5085935050505092915050565b5f6020820190508181035f830152612680818461260c565b905092915050565b5f806040838503121561269e5761269d611fac565b5b5f6126ab858286016121c3565b92505060206126bc858286016121c3565b9150509250929050565b7f4e487b71000000000000000000000000000000000000000000000000000000005f52602260045260245ffd5b5f600282049050600182168061270a57607f821691505b60208210810361271d5761271c6126c6565b5b50919050565b5f6060820190506127365f830186612185565b61274360208301856123d8565b6127506040830184612185565b949350505050565b7f4f574e45525f4f4e4c59000000000000000000000000000000000000000000005f82015250565b5f61278c600a83612071565b915061279782612758565b602082019050919050565b5f6020820190508181035f8301526127b981612780565b9050919050565b5f819050815f5260205f209050919050565b5f6020601f8301049050919050565b5f82821b905092915050565b5f6008830261281c7fffffffffffffffffffffffffffffffffffffffffffffffffffffffffffffffff826127e1565b61282686836127e1565b95508019841693508086168417925050509392505050565b5f819050919050565b5f61286161285c612857846120f7565b61283e565b6120f7565b9050919050565b5f819050919050565b61287a83612847565b61288e61288682612868565b8484546127ed565b825550505050565b5f90565b6128a2612896565b6128ad818484612871565b505050565b5b818110156128d0576128c55f8261289a565b6001810190506128b3565b5050565b601f821115612915576128e6816127c0565b6128ef846127d2565b810160208510156128fe578190505b61291261290a856127d2565b8301826128b2565b50505b505050565b5f82821c905092915050565b5f6129355f198460080261291a565b1980831691505092915050565b5f61294d8383612926565b9150826002028217905092915050565b61296682612067565b67ffffffffffffffff81111561297f5761297e61226d565b5b61298982546126f3565b6129948282856128d4565b5f60209050601f8311600181146129c5575f84156129b3578287015190505b6129bd8582612942565b865550612a24565b601f1984166129d3866127c0565b5f5b828110156129fa578489015182556001820191506020850194506020810190506129d5565b86831015612a175784890151612a13601f891682612926565b8355505b6001600288020188555050505b505050505050565b5f81905092915050565b5f612a4082612067565b612a4a8185612a2c565b9350612a5a818560208601612081565b80840191505092915050565b5f612a718285612a36565b9150612a7d8284612a36565b91508190509392505050565b7f4e487b71000000000000000000000000000000000000000000000000000000005f52601160045260245ffd5b5f612ac0826120f7565b9150612acb836120f7565b9250828201905080821115612ae357612ae2612a89565b5b92915050565b7f4e487b71000000000000000000000000000000000000000000000000000000005f52603260045260245ffd5b5f612b20826120f7565b91507fffffffffffffffffffffffffffffffffffffffffffffffffffffffffffffffff8203612b5257612b51612a89565b5b600182019050919050565b5f81519050612b6b816121ad565b92915050565b5f60208284031215612b8657612b85611fac565b5b5f612b9384828501612b5d565b91505092915050565b7f4e4f5f41434345535300000000000000000000000000000000000000000000005f82015250565b5f612bd0600983612071565b9150612bdb82612b9c565b602082019050919050565b5f6020820190508181035f830152612bfd81612bc4565b9050919050565b7f494e56414c49445f4e46545f494e4445580000000000000000000000000000005f82015250565b5f612c38601183612071565b9150612c4382612c04565b602082019050919050565b5f6020820190508181035f830152612c6581612c2c565b9050919050565b5f81519050612c7a81612100565b92915050565b5f60208284031215612c9557612c94611fac565b5b5f612ca284828501612c6c565b91505092915050565b7f494e53554646494349454e545f46554e445300000000000000000000000000005f82015250565b5f612cdf601283612071565b9150612cea82612cab565b602082019050919050565b5f6020820190508181035f830152612d0c81612cd3565b9050919050565b5f604082019050612d265f830185612185565b612d3360208301846123d8565b9392505050565b5f81519050919050565b5f82825260208201905092915050565b5f612d5e82612d3a565b612d688185612d44565b9350612d78818560208601612081565b612d818161208f565b840191505092915050565b5f608082019050612d9f5f830187612185565b612dac6020830186612185565b612db960408301856123d8565b8181036060830152612dcb8184612d54565b905095945050505050565b5f81519050612de481611fdf565b92915050565b5f60208284031215612dff57612dfe611fac565b5b5f612e0c84828501612dd6565b91505092915050565b7f4e487b71000000000000000000000000000000000000000000000000000000005f52601260045260245ffd5b7f4e487b71000000000000000000000000000000000000000000000000000000005f52605160045260245ffdfea26469706673582212205ebccb8b6af6cf942650b8f8b096868dc5db099e7e74a4999c5033d441e579cb64736f6c634300081a0033",
  "deployedBytecode": "0x608060405234801561001057600080fd5b506004361061014d5760003560e01c80638da5cb5b116100c3578063c87b56dd1161007c578063c87b56dd1461038c578063d84e9f92146103bc578063e4e0bc46146103da578063e985e9c51461040a578063f18785a81461043a578063fe5c873a146104585761014d565b80638da5cb5b146102dc5780638f53be1f146102fa57806395d89b4114610318578063a22cb46514610336578063b88d4fde14610352578063c1a0db301461036e5761014d565b806342842e0e1161011557806342842e0e1461020857806355f804b31461022457806356973974146102405780636352211e1461025e57806369a2f0261461028e57806370a08231146102ac5761014d565b806301ffc9a71461015257806306fdde0314610182578063081812fc146101a0578063095ea7b3146101d057806323b872dd146101ec575b600080fd5b61016c6004803603810190610167919061222b565b610474565b6040516101799190612273565b60405180910390f35b61018a6104d5565b604051610197919061231e565b60405180910390f35b6101ba60048036038101906101b59190612376565b610567565b6040516101c791906123e4565b60405180910390f35b6101ea60048036038101906101e5919061242b565b6105ad565b005b6102066004803603810190610201919061246b565b6106c4565b005b610222600480360381019061021d919061246b565b610724565b005b61023e600480360381019061023991906125f3565b610744565b005b6102486107e7565b604051610255919061264b565b60405180910390f35b61027860048036038101906102739190612376565b6107f4565b60405161028591906123e4565b60405180910390f35b61029661087a565b6040516102a3919061264b565b60405180910390f35b6102c660048036038101906102c19190612666565b610887565b6040516102d3919061264b565b60405180910390f35b6102e461093e565b6040516102f191906123e4565b60405180910390f35b610302610964565b60405161030f919061264b565b60405180910390f35b610320610969565b60405161032d919061231e565b60405180910390f35b610350600480360381019061034b91906126bf565b6109fb565b005b61036c600480360381019061036791906127a0565b610a11565b005b610376610a73565b604051610383919061264b565b60405180910390f35b6103a660048036038101906103a19190612376565b610a80565b6040516103b3919061231e565b60405180910390f35b6103c4610b92565b6040516103d191906123e4565b60405180910390f35b6103f460048036038101906103ef9190612666565b610bb8565b60405161040191906128e1565b60405180910390f35b610424600480360381019061041f9190612903565b610cb0565b6040516104319190612273565b60405180910390f35b610442610d44565b60405161044f919061264b565b60405180910390f35b610472600480360381019061046d9190612376565b610d49565b005b6000634906490660e01b7bffffffffffffffffffffffffffffffffffffffffffffffffffffffff1916827bffffffffffffffffffffffffffffffffffffffffffffffffffffffff191614806104ce57506104cd826110f4565b5b9050919050565b6060600080546104e490612972565b80601f016020809104026020016040519081016040528092919081815260200182805461051090612972565b801561055d5780601f106105325761010080835404028352916020019161055d565b820191906000526020600020905b81548152906001019060200180831161054057829003601f168201915b5050505050905090565b6000610572826111d6565b6004600083815260200190815260200160002060009054906101000a900473ffffffffffffffffffffffffffffffffffffffff169050919050565b60006105b8826107f4565b90508073ffffffffffffffffffffffffffffffffffffffff168373ffffffffffffffffffffffffffffffffffffffff1603610628576040517f08c379a000000000000000000000000000000000000000000000000000000000815260040161061f90612a15565b60405180910390fd5b8073ffffffffffffffffffffffffffffffffffffffff16610647611221565b73ffffffffffffffffffffffffffffffffffffffff161480610676575061067581610670611221565b610cb0565b5b6106b5576040517f08c379a00000000000000000000000000000000000000000000000000000000081526004016106ac90612aa7565b60405180910390fd5b6106bf8383611229565b505050565b6106d56106cf611221565b826112e2565b610714576040517f08c379a000000000000000000000000000000000000000000000000000000000815260040161070b90612b39565b60405180910390fd5b61071f838383611377565b505050565b61073f83838360405180602001604052806000815250610a11565b505050565b600760009054906101000a900473ffffffffffffffffffffffffffffffffffffffff1673ffffffffffffffffffffffffffffffffffffffff163373ffffffffffffffffffffffffffffffffffffffff16146107d4576040517f08c379a00000000000000000000000000000000000000000000000000000000081526004016107cb90612ba5565b60405180910390fd5b80600a90816107e39190612d71565b5050565b681b1ae4d6e2ef50000081565b60008061080083611670565b9050600073ffffffffffffffffffffffffffffffffffffffff168173ffffffffffffffffffffffffffffffffffffffff1603610871576040517f08c379a000000000000000000000000000000000000000000000000000000000815260040161086890612e8f565b60405180910390fd5b80915050919050565b6802b5e3af16b188000081565b60008073ffffffffffffffffffffffffffffffffffffffff168273ffffffffffffffffffffffffffffffffffffffff16036108f7576040517f08c379a00000000000000000000000000000000000000000000000000000000081526004016108ee90612f21565b60405180910390fd5b600360008373ffffffffffffffffffffffffffffffffffffffff1673ffffffffffffffffffffffffffffffffffffffff168152602001908152602001600020549050919050565b600760009054906101000a900473ffffffffffffffffffffffffffffffffffffffff1681565b601481565b60606001805461097890612972565b80601f01602080910402602001604051908101604052809291908181526020018280546109a490612972565b80156109f15780601f106109c6576101008083540402835291602001916109f1565b820191906000526020600020905b8154815290600101906020018083116109d457829003601f168201915b5050505050905090565b610a0d610a06611221565b83836116ad565b5050565b610a22610a1c611221565b836112e2565b610a61576040517f08c379a0000000000000000000000000000000000000000000000000000000008152600401610a5890612b39565b60405180910390fd5b610a6d84848484611819565b50505050565b681043561a882930000081565b6060610a8b826111d6565b6000600660008481526020019081526020016000208054610aab90612972565b80601f0160208091040260200160405190810160405280929190818152602001828054610ad790612972565b8015610b245780601f10610af957610100808354040283529160200191610b24565b820191906000526020600020905b815481529060010190602001808311610b0757829003601f168201915b505050505090506000610b35611875565b90506000815103610b4a578192505050610b8d565b600082511115610b7f578082604051602001610b67929190612f7d565b60405160208183030381529060405292505050610b8d565b610b8884611907565b925050505b919050565b600860009054906101000a900473ffffffffffffffffffffffffffffffffffffffff1681565b6060600060016009610bca9190612fd0565b67ffffffffffffffff811115610be357610be26124c8565b5b604051908082528060200260200182016040528015610c115781602001602082028036833780820191505090505b5090506000600190505b60098111610ca657600960008573ffffffffffffffffffffffffffffffffffffffff1673ffffffffffffffffffffffffffffffffffffffff168152602001908152602001600020600082815260200190815260200160002054828281518110610c8757610c86613004565b5b6020026020010181815250508080610c9e90613033565b915050610c1b565b5080915050919050565b6000600560008473ffffffffffffffffffffffffffffffffffffffff1673ffffffffffffffffffffffffffffffffffffffff16815260200190815260200160002060008373ffffffffffffffffffffffffffffffffffffffff1673ffffffffffffffffffffffffffffffffffffffff16815260200190815260200160002060009054906101000a900460ff16905092915050565b600981565b3073ffffffffffffffffffffffffffffffffffffffff16600860009054906101000a900473ffffffffffffffffffffffffffffffffffffffff1673ffffffffffffffffffffffffffffffffffffffff166327810b6e6040518163ffffffff1660e01b8152600401602060405180830381865afa158015610dcd573d6000803e3d6000fd5b505050506040513d601f19601f82011682018060405250810190610df19190613090565b73ffffffffffffffffffffffffffffffffffffffff1614610e47576040517f08c379a0000000000000000000000000000000000000000000000000000000008152600401610e3e90613109565b60405180910390fd5b60018110158015610e59575060098111155b610e98576040517f08c379a0000000000000000000000000000000000000000000000000000000008152600401610e8f90613175565b60405180910390fd5b60006802b5e3af16b188000090506007821115610ec057681b1ae4d6e2ef5000009050610ed7565b6002821115610ed657681043561a882930000090505b5b80600860009054906101000a900473ffffffffffffffffffffffffffffffffffffffff1673ffffffffffffffffffffffffffffffffffffffff166370a08231336040518263ffffffff1660e01b8152600401610f3391906123e4565b602060405180830381865afa158015610f50573d6000803e3d6000fd5b505050506040513d601f19601f82011682018060405250810190610f7491906131aa565b1015610fb5576040517f08c379a0000000000000000000000000000000000000000000000000000000008152600401610fac90613223565b60405180910390fd5b600860009054906101000a900473ffffffffffffffffffffffffffffffffffffffff1673ffffffffffffffffffffffffffffffffffffffff16630d1118ce33836040518363ffffffff1660e01b8152600401611012929190613243565b600060405180830381600087803b15801561102c57600080fd5b505af1158015611040573d6000803e3d6000fd5b5050505061104e600b61196f565b600061105a600b611985565b90506110663382611993565b6110788161107385611bb0565b611c7e565b61108961108482610a80565b611d22565b600960003373ffffffffffffffffffffffffffffffffffffffff1673ffffffffffffffffffffffffffffffffffffffff168152602001908152602001600020600084815260200190815260200160002060008154809291906110ea90613033565b9190505550505050565b60007f80ac58cd000000000000000000000000000000000000000000000000000000007bffffffffffffffffffffffffffffffffffffffffffffffffffffffff1916827bffffffffffffffffffffffffffffffffffffffffffffffffffffffff191614806111bf57507f5b5e139f000000000000000000000000000000000000000000000000000000007bffffffffffffffffffffffffffffffffffffffffffffffffffffffff1916827bffffffffffffffffffffffffffffffffffffffffffffffffffffffff1916145b806111cf57506111ce82611dbb565b5b9050919050565b6111df81611e25565b61121e576040517f08c379a000000000000000000000000000000000000000000000000000000000815260040161121590612e8f565b60405180910390fd5b50565b600033905090565b816004600083815260200190815260200160002060006101000a81548173ffffffffffffffffffffffffffffffffffffffff021916908373ffffffffffffffffffffffffffffffffffffffff160217905550808273ffffffffffffffffffffffffffffffffffffffff1661129c836107f4565b73ffffffffffffffffffffffffffffffffffffffff167f8c5be1e5ebec7d5bd14f71427d1e84f3dd0314c0f7b2291e5b200ac8c7c3b92560405160405180910390a45050565b6000806112ee836107f4565b90508073ffffffffffffffffffffffffffffffffffffffff168473ffffffffffffffffffffffffffffffffffffffff161480611330575061132f8185610cb0565b5b8061136e57508373ffffffffffffffffffffffffffffffffffffffff1661135684610567565b73ffffffffffffffffffffffffffffffffffffffff16145b91505092915050565b8273ffffffffffffffffffffffffffffffffffffffff16611397826107f4565b73ffffffffffffffffffffffffffffffffffffffff16146113ed576040517f08c379a00000000000000000000000000000000000000000000000000000000081526004016113e4906132de565b60405180910390fd5b600073ffffffffffffffffffffffffffffffffffffffff168273ffffffffffffffffffffffffffffffffffffffff160361145c576040517f08c379a000000000000000000000000000000000000000000000000000000000815260040161145390613370565b60405180910390fd5b6114698383836001611e66565b8273ffffffffffffffffffffffffffffffffffffffff16611489826107f4565b73ffffffffffffffffffffffffffffffffffffffff16146114df576040517f08c379a00000000000000000000000000000000000000000000000000000000081526004016114d6906132de565b60405180910390fd5b6004600082815260200190815260200160002060006101000a81549073ffffffffffffffffffffffffffffffffffffffff02191690556001600360008573ffffffffffffffffffffffffffffffffffffffff1673ffffffffffffffffffffffffffffffffffffffff168152602001908152602001600020600082825403925050819055506001600360008473ffffffffffffffffffffffffffffffffffffffff1673ffffffffffffffffffffffffffffffffffffffff16815260200190815260200160002060008282540192505081905550816002600083815260200190815260200160002060006101000a81548173ffffffffffffffffffffffffffffffffffffffff021916908373ffffffffffffffffffffffffffffffffffffffff160217905550808273ffffffffffffffffffffffffffffffffffffffff168473ffffffffffffffffffffffffffffffffffffffff167fddf252ad1be2c89b69c2b068fc378daa952ba7f163c4a11628f55a4df523b3ef60405160405180910390a461166b8383836001611e6c565b505050565b60006002600083815260200190815260200160002060009054906101000a900473ffffffffffffffffffffffffffffffffffffffff169050919050565b8173ffffffffffffffffffffffffffffffffffffffff168373ffffffffffffffffffffffffffffffffffffffff160361171b576040517f08c379a0000000000000000000000000000000000000000000000000000000008152600401611712906133dc565b60405180910390fd5b80600560008573ffffffffffffffffffffffffffffffffffffffff1673ffffffffffffffffffffffffffffffffffffffff16815260200190815260200160002060008473ffffffffffffffffffffffffffffffffffffffff1673ffffffffffffffffffffffffffffffffffffffff16815260200190815260200160002060006101000a81548160ff0219169083151502179055508173ffffffffffffffffffffffffffffffffffffffff168373ffffffffffffffffffffffffffffffffffffffff167f17307eab39ab6107e8899845ad3d59bd9653f200f220920489ca2b5937696c318360405161180c9190612273565b60405180910390a3505050565b611824848484611377565b61183084848484611e72565b61186f576040517f08c379a00000000000000000000000000000000000000000000000000000000081526004016118669061346e565b60405180910390fd5b50505050565b6060600a805461188490612972565b80601f01602080910402602001604051908101604052809291908181526020018280546118b090612972565b80156118fd5780601f106118d2576101008083540402835291602001916118fd565b820191906000526020600020905b8154815290600101906020018083116118e057829003601f168201915b5050505050905090565b6060611912826111d6565b600061191c611875565b9050600081511161193c5760405180602001604052806000815250611967565b8061194684611bb0565b604051602001611957929190612f7d565b6040516020818303038152906040525b915050919050565b6001816000016000828254019250508190555050565b600081600001549050919050565b600073ffffffffffffffffffffffffffffffffffffffff168273ffffffffffffffffffffffffffffffffffffffff1603611a02576040517f08c379a00000000000000000000000000000000000000000000000000000000081526004016119f9906134da565b60405180910390fd5b611a0b81611e25565b15611a4b576040517f08c379a0000000000000000000000000000000000000000000000000000000008152600401611a4290613546565b60405180910390fd5b611a59600083836001611e66565b611a6281611e25565b15611aa2576040517f08c379a0000000000000000000000000000000000000000000000000000000008152600401611a9990613546565b60405180910390fd5b6001600360008473ffffffffffffffffffffffffffffffffffffffff1673ffffffffffffffffffffffffffffffffffffffff16815260200190815260200160002060008282540192505081905550816002600083815260200190815260200160002060006101000a81548173ffffffffffffffffffffffffffffffffffffffff021916908373ffffffffffffffffffffffffffffffffffffffff160217905550808273ffffffffffffffffffffffffffffffffffffffff16600073ffffffffffffffffffffffffffffffffffffffff167fddf252ad1be2c89b69c2b068fc378daa952ba7f163c4a11628f55a4df523b3ef60405160405180910390a4611bac600083836001611e6c565b5050565b606060006001611bbf84611ff9565b01905060008167ffffffffffffffff811115611bde57611bdd6124c8565b5b6040519080825280601f01601f191660200182016040528015611c105781602001600182028036833780820191505090505b509050600082602001820190505b600115611c73578080600190039150507f3031323334353637383961626364656600000000000000000000000000000000600a86061a8153600a8581611c6757611c66613566565b5b04945060008503611c1e575b819350505050919050565b611c8782611e25565b611cc6576040517f08c379a0000000000000000000000000000000000000000000000000000000008152600401611cbd90613607565b60405180910390fd5b80600660008481526020019081526020016000209081611ce69190612d71565b507ff8e1a15aba9398e019f0b49df1a4fde98ee17ae345cb5f6b5e2c27f5033e8ce782604051611d16919061264b565b60405180910390a15050565b611db881604051602401611d36919061231e565b6040516020818303038152906040527f41304fac000000000000000000000000000000000000000000000000000000007bffffffffffffffffffffffffffffffffffffffffffffffffffffffff19166020820180517bffffffffffffffffffffffffffffffffffffffffffffffffffffffff838183161783525050505061214c565b50565b60007f01ffc9a7000000000000000000000000000000000000000000000000000000007bffffffffffffffffffffffffffffffffffffffffffffffffffffffff1916827bffffffffffffffffffffffffffffffffffffffffffffffffffffffff1916149050919050565b60008073ffffffffffffffffffffffffffffffffffffffff16611e4783611670565b73ffffffffffffffffffffffffffffffffffffffff1614159050919050565b50505050565b50505050565b6000611e938473ffffffffffffffffffffffffffffffffffffffff16612166565b15611fec578373ffffffffffffffffffffffffffffffffffffffff1663150b7a02611ebc611221565b8786866040518563ffffffff1660e01b8152600401611ede949392919061367c565b6020604051808303816000875af1925050508015611f1a57506040513d601f19601f82011682018060405250810190611f1791906136dd565b60015b611f9c573d8060008114611f4a576040519150601f19603f3d011682016040523d82523d6000602084013e611f4f565b606091505b506000815103611f94576040517f08c379a0000000000000000000000000000000000000000000000000000000008152600401611f8b9061346e565b60405180910390fd5b805181602001fd5b63150b7a0260e01b7bffffffffffffffffffffffffffffffffffffffffffffffffffffffff1916817bffffffffffffffffffffffffffffffffffffffffffffffffffffffff191614915050611ff1565b600190505b949350505050565b600080600090507a184f03e93ff9f4daa797ed6e38ed64bf6a1f0100000000000000008310612057577a184f03e93ff9f4daa797ed6e38ed64bf6a1f010000000000000000838161204d5761204c613566565b5b0492506040810190505b6d04ee2d6d415b85acef81000000008310612094576d04ee2d6d415b85acef8100000000838161208a57612089613566565b5b0492506020810190505b662386f26fc1000083106120c357662386f26fc1000083816120b9576120b8613566565b5b0492506010810190505b6305f5e10083106120ec576305f5e10083816120e2576120e1613566565b5b0492506008810190505b612710831061211157612710838161210757612106613566565b5b0492506004810190505b60648310612134576064838161212a57612129613566565b5b0492506002810190505b600a8310612143576001810190505b80915050919050565b6121638161215b6121896121aa565b63ffffffff16565b50565b6000808273ffffffffffffffffffffffffffffffffffffffff163b119050919050565b60006a636f6e736f6c652e6c6f679050600080835160208501845afa505050565b6121b5819050919050565b6121bd61370a565b565b6000604051905090565b600080fd5b600080fd5b60007fffffffff0000000000000000000000000000000000000000000000000000000082169050919050565b612208816121d3565b811461221357600080fd5b50565b600081359050612225816121ff565b92915050565b600060208284031215612241576122406121c9565b5b600061224f84828501612216565b91505092915050565b60008115159050919050565b61226d81612258565b82525050565b60006020820190506122886000830184612264565b92915050565b600081519050919050565b600082825260208201905092915050565b60005b838110156122c85780820151818401526020810190506122ad565b60008484015250505050565b6000601f19601f8301169050919050565b60006122f08261228e565b6122fa8185612299565b935061230a8185602086016122aa565b612313816122d4565b840191505092915050565b6000602082019050818103600083015261233881846122e5565b905092915050565b6000819050919050565b61235381612340565b811461235e57600080fd5b50565b6000813590506123708161234a565b92915050565b60006020828403121561238c5761238b6121c9565b5b600061239a84828501612361565b91505092915050565b600073ffffffffffffffffffffffffffffffffffffffff82169050919050565b60006123ce826123a3565b9050919050565b6123de816123c3565b82525050565b60006020820190506123f960008301846123d5565b92915050565b612408816123c3565b811461241357600080fd5b50565b600081359050612425816123ff565b92915050565b60008060408385031215612442576124416121c9565b5b600061245085828601612416565b925050602061246185828601612361565b9150509250929050565b600080600060608486031215612484576124836121c9565b5b600061249286828701612416565b93505060206124a386828701612416565b92505060406124b486828701612361565b9150509250925092565b600080fd5b600080fd5b7f4e487b7100000000000000000000000000000000000000000000000000000000600052604160045260246000fd5b612500826122d4565b810181811067ffffffffffffffff8211171561251f5761251e6124c8565b5b80604052505050565b60006125326121bf565b905061253e82826124f7565b919050565b600067ffffffffffffffff82111561255e5761255d6124c8565b5b612567826122d4565b9050602081019050919050565b82818337600083830152505050565b600061259661259184612543565b612528565b9050828152602081018484840111156125b2576125b16124c3565b5b6125bd848285612574565b509392505050565b600082601f8301126125da576125d96124be565b5b81356125ea848260208601612583565b91505092915050565b600060208284031215612609576126086121c9565b5b600082013567ffffffffffffffff811115612627576126266121ce565b5b612633848285016125c5565b91505092915050565b61264581612340565b82525050565b6000602082019050612660600083018461263c565b92915050565b60006020828403121561267c5761267b6121c9565b5b600061268a84828501612416565b91505092915050565b61269c81612258565b81146126a757600080fd5b50565b6000813590506126b981612693565b92915050565b600080604083850312156126d6576126d56121c9565b5b60006126e485828601612416565b92505060206126f5858286016126aa565b9150509250929050565b600067ffffffffffffffff82111561271a576127196124c8565b5b612723826122d4565b9050602081019050919050565b600061274361273e846126ff565b612528565b90508281526020810184848401111561275f5761275e6124c3565b5b61276a848285612574565b509392505050565b600082601f830112612787576127866124be565b5b8135612797848260208601612730565b91505092915050565b600080600080608085870312156127ba576127b96121c9565b5b60006127c887828801612416565b94505060206127d987828801612416565b93505060406127ea87828801612361565b925050606085013567ffffffffffffffff81111561280b5761280a6121ce565b5b61281787828801612772565b91505092959194509250565b600081519050919050565b600082825260208201905092915050565b6000819050602082019050919050565b61285881612340565b82525050565b600061286a838361284f565b60208301905092915050565b6000602082019050919050565b600061288e82612823565b612898818561282e565b93506128a38361283f565b8060005b838110156128d45781516128bb888261285e565b97506128c683612876565b9250506001810190506128a7565b5085935050505092915050565b600060208201905081810360008301526128fb8184612883565b905092915050565b6000806040838503121561291a576129196121c9565b5b600061292885828601612416565b925050602061293985828601612416565b9150509250929050565b7f4e487b7100000000000000000000000000000000000000000000000000000000600052602260045260246000fd5b6000600282049050600182168061298a57607f821691505b60208210810361299d5761299c612943565b5b50919050565b7f4552433732313a20617070726f76616c20746f2063757272656e74206f776e6560008201527f7200000000000000000000000000000000000000000000000000000000000000602082015250565b60006129ff602183612299565b9150612a0a826129a3565b604082019050919050565b60006020820190508181036000830152612a2e816129f2565b9050919050565b7f4552433732313a20617070726f76652063616c6c6572206973206e6f7420746f60008201527f6b656e206f776e6572206f7220617070726f76656420666f7220616c6c000000602082015250565b6000612a91603d83612299565b9150612a9c82612a35565b604082019050919050565b60006020820190508181036000830152612ac081612a84565b9050919050565b7f4552433732313a2063616c6c6572206973206e6f7420746f6b656e206f776e6560008201527f72206f7220617070726f76656400000000000000000000000000000000000000602082015250565b6000612b23602d83612299565b9150612b2e82612ac7565b604082019050919050565b60006020820190508181036000830152612b5281612b16565b9050919050565b7f4f574e45525f4f4e4c5900000000000000000000000000000000000000000000600082015250565b6000612b8f600a83612299565b9150612b9a82612b59565b602082019050919050565b60006020820190508181036000830152612bbe81612b82565b9050919050565b60008190508160005260206000209050919050565b60006020601f8301049050919050565b600082821b905092915050565b600060088302612c277fffffffffffffffffffffffffffffffffffffffffffffffffffffffffffffffff82612bea565b612c318683612bea565b95508019841693508086168417925050509392505050565b6000819050919050565b6000612c6e612c69612c6484612340565b612c49565b612340565b9050919050565b6000819050919050565b612c8883612c53565b612c9c612c9482612c75565b848454612bf7565b825550505050565b600090565b612cb1612ca4565b612cbc818484612c7f565b505050565b5b81811015612ce057612cd5600082612ca9565b600181019050612cc2565b5050565b601f821115612d2557612cf681612bc5565b612cff84612bda565b81016020851015612d0e578190505b612d22612d1a85612bda565b830182612cc1565b50505b505050565b600082821c905092915050565b6000612d4860001984600802612d2a565b1980831691505092915050565b6000612d618383612d37565b9150826002028217905092915050565b612d7a8261228e565b67ffffffffffffffff811115612d9357612d926124c8565b5b612d9d8254612972565b612da8828285612ce4565b600060209050601f831160018114612ddb5760008415612dc9578287015190505b612dd38582612d55565b865550612e3b565b601f198416612de986612bc5565b60005b82811015612e1157848901518255600182019150602085019450602081019050612dec565b86831015612e2e5784890151612e2a601f891682612d37565b8355505b6001600288020188555050505b505050505050565b7f4552433732313a20696e76616c696420746f6b656e2049440000000000000000600082015250565b6000612e79601883612299565b9150612e8482612e43565b602082019050919050565b60006020820190508181036000830152612ea881612e6c565b9050919050565b7f4552433732313a2061646472657373207a65726f206973206e6f74206120766160008201527f6c6964206f776e65720000000000000000000000000000000000000000000000602082015250565b6000612f0b602983612299565b9150612f1682612eaf565b604082019050919050565b60006020820190508181036000830152612f3a81612efe565b9050919050565b600081905092915050565b6000612f578261228e565b612f618185612f41565b9350612f718185602086016122aa565b80840191505092915050565b6000612f898285612f4c565b9150612f958284612f4c565b91508190509392505050565b7f4e487b7100000000000000000000000000000000000000000000000000000000600052601160045260246000fd5b6000612fdb82612340565b9150612fe683612340565b9250828201905080821115612ffe57612ffd612fa1565b5b92915050565b7f4e487b7100000000000000000000000000000000000000000000000000000000600052603260045260246000fd5b600061303e82612340565b91507fffffffffffffffffffffffffffffffffffffffffffffffffffffffffffffffff82036130705761306f612fa1565b5b600182019050919050565b60008151905061308a816123ff565b92915050565b6000602082840312156130a6576130a56121c9565b5b60006130b48482850161307b565b91505092915050565b7f4e4f5f4143434553530000000000000000000000000000000000000000000000600082015250565b60006130f3600983612299565b91506130fe826130bd565b602082019050919050565b60006020820190508181036000830152613122816130e6565b9050919050565b7f494e56414c49445f4e46545f494e444558000000000000000000000000000000600082015250565b600061315f601183612299565b915061316a82613129565b602082019050919050565b6000602082019050818103600083015261318e81613152565b9050919050565b6000815190506131a48161234a565b92915050565b6000602082840312156131c0576131bf6121c9565b5b60006131ce84828501613195565b91505092915050565b7f494e53554646494349454e545f46554e44530000000000000000000000000000600082015250565b600061320d601283612299565b9150613218826131d7565b602082019050919050565b6000602082019050818103600083015261323c81613200565b9050919050565b600060408201905061325860008301856123d5565b613265602083018461263c565b9392505050565b7f4552433732313a207472616e736665722066726f6d20696e636f72726563742060008201527f6f776e6572000000000000000000000000000000000000000000000000000000602082015250565b60006132c8602583612299565b91506132d38261326c565b604082019050919050565b600060208201905081810360008301526132f7816132bb565b9050919050565b7f4552433732313a207472616e7366657220746f20746865207a65726f2061646460008201527f7265737300000000000000000000000000000000000000000000000000000000602082015250565b600061335a602483612299565b9150613365826132fe565b604082019050919050565b600060208201905081810360008301526133898161334d565b9050919050565b7f4552433732313a20617070726f766520746f2063616c6c657200000000000000600082015250565b60006133c6601983612299565b91506133d182613390565b602082019050919050565b600060208201905081810360008301526133f5816133b9565b9050919050565b7f4552433732313a207472616e7366657220746f206e6f6e20455243373231526560008201527f63656976657220696d706c656d656e7465720000000000000000000000000000602082015250565b6000613458603283612299565b9150613463826133fc565b604082019050919050565b600060208201905081810360008301526134878161344b565b9050919050565b7f4552433732313a206d696e7420746f20746865207a65726f2061646472657373600082015250565b60006134c4602083612299565b91506134cf8261348e565b602082019050919050565b600060208201905081810360008301526134f3816134b7565b9050919050565b7f4552433732313a20746f6b656e20616c7265616479206d696e74656400000000600082015250565b6000613530601c83612299565b915061353b826134fa565b602082019050919050565b6000602082019050818103600083015261355f81613523565b9050919050565b7f4e487b7100000000000000000000000000000000000000000000000000000000600052601260045260246000fd5b7f45524337323155524953746f726167653a2055524920736574206f66206e6f6e60008201527f6578697374656e7420746f6b656e000000000000000000000000000000000000602082015250565b60006135f1602e83612299565b91506135fc82613595565b604082019050919050565b60006020820190508181036000830152613620816135e4565b9050919050565b600081519050919050565b600082825260208201905092915050565b600061364e82613627565b6136588185613632565b93506136688185602086016122aa565b613671816122d4565b840191505092915050565b600060808201905061369160008301876123d5565b61369e60208301866123d5565b6136ab604083018561263c565b81810360608301526136bd8184613643565b905095945050505050565b6000815190506136d7816121ff565b92915050565b6000602082840312156136f3576136f26121c9565b5b6000613701848285016136c8565b91505092915050565b7f4e487b7100000000000000000000000000000000000000000000000000000000600052605160045260246000fdfea2646970667358221220cc17257ab019e0ea75e5d2e73050ac227516f293366909fb1a84cf3238e6e14964736f6c634300081a0033",
  "linkReferences": {},
  "deployedLinkReferences": {}
}